{
  "contractName": "ClosedEndFund",
  "abi": [
    {
      "inputs": [
        {
          "internalType": "address",
          "name": "_manager",
          "type": "address"
        },
        {
          "internalType": "string",
          "name": "_title",
          "type": "string"
        },
        {
          "internalType": "string",
          "name": "_description",
          "type": "string"
        },
        {
          "internalType": "uint256",
          "name": "_tokenPrice",
          "type": "uint256"
        },
        {
          "internalType": "uint256",
          "name": "_initialSupply",
          "type": "uint256"
        },
        {
          "internalType": "uint256",
          "name": "_tokensPerInvestor",
          "type": "uint256"
        },
        {
          "internalType": "bool",
          "name": "_isDutchAuction",
          "type": "bool"
        },
        {
          "internalType": "uint256",
          "name": "_timeToBuyInHours",
          "type": "uint256"
        },
        {
          "internalType": "address[]",
          "name": "_whiteListedInvestors",
          "type": "address[]"
        }
      ],
      "stateMutability": "nonpayable",
      "type": "constructor"
    },
    {
      "anonymous": false,
      "inputs": [
        {
          "indexed": true,
          "internalType": "address",
          "name": "owner",
          "type": "address"
        },
        {
          "indexed": true,
          "internalType": "address",
          "name": "spender",
          "type": "address"
        },
        {
          "indexed": false,
          "internalType": "uint256",
          "name": "value",
          "type": "uint256"
        }
      ],
      "name": "Approval",
      "type": "event"
    },
    {
      "anonymous": false,
      "inputs": [
        {
          "indexed": false,
          "internalType": "address",
          "name": "buyer",
          "type": "address"
        },
        {
          "indexed": false,
          "internalType": "address",
          "name": "seller",
          "type": "address"
        },
        {
          "indexed": false,
          "internalType": "uint256",
          "name": "amountOfETH",
          "type": "uint256"
        },
        {
          "indexed": false,
          "internalType": "uint256",
          "name": "amountOfTokens",
          "type": "uint256"
        }
      ],
      "name": "BuyTokens",
      "type": "event"
    },
    {
      "anonymous": false,
      "inputs": [
        {
          "indexed": false,
          "internalType": "uint256",
          "name": "amountOfTokens",
          "type": "uint256"
        }
      ],
      "name": "CapitalCall",
      "type": "event"
    },
    {
      "anonymous": false,
      "inputs": [
        {
          "indexed": false,
          "internalType": "uint256",
          "name": "newTimeToBuyInHours",
          "type": "uint256"
        }
      ],
      "name": "SetNewTimeToBuyInHours",
      "type": "event"
    },
    {
      "anonymous": false,
      "inputs": [
        {
          "indexed": false,
          "internalType": "uint256",
          "name": "newTokenCap",
          "type": "uint256"
        }
      ],
      "name": "SetNewTokenCap",
      "type": "event"
    },
    {
      "anonymous": false,
      "inputs": [
        {
          "indexed": false,
          "internalType": "uint256",
          "name": "newTokenPrice",
          "type": "uint256"
        }
      ],
      "name": "SetNewTokenPrice",
      "type": "event"
    },
    {
      "anonymous": false,
      "inputs": [
        {
          "indexed": true,
          "internalType": "address",
          "name": "from",
          "type": "address"
        },
        {
          "indexed": true,
          "internalType": "address",
          "name": "to",
          "type": "address"
        },
        {
          "indexed": false,
          "internalType": "uint256",
          "name": "value",
          "type": "uint256"
        }
      ],
      "name": "Transfer",
      "type": "event"
    },
    {
      "inputs": [
        {
          "internalType": "address",
          "name": "owner",
          "type": "address"
        },
        {
          "internalType": "address",
          "name": "spender",
          "type": "address"
        }
      ],
      "name": "allowance",
      "outputs": [
        {
          "internalType": "uint256",
          "name": "",
          "type": "uint256"
        }
      ],
      "stateMutability": "view",
      "type": "function"
    },
    {
      "inputs": [
        {
          "internalType": "uint256",
          "name": "",
          "type": "uint256"
        }
      ],
      "name": "auctions",
      "outputs": [
        {
          "internalType": "address",
          "name": "seller",
          "type": "address"
        },
        {
          "internalType": "uint256",
          "name": "amountToSell",
          "type": "uint256"
        },
        {
          "internalType": "uint256",
          "name": "startingPrice",
          "type": "uint256"
        },
        {
          "internalType": "uint256",
          "name": "minimumPrice",
          "type": "uint256"
        },
        {
          "internalType": "uint256",
          "name": "startAt",
          "type": "uint256"
        },
        {
          "internalType": "uint256",
          "name": "expiresAt",
          "type": "uint256"
        },
        {
          "internalType": "bool",
          "name": "completed",
          "type": "bool"
        }
      ],
      "stateMutability": "view",
      "type": "function"
    },
    {
      "inputs": [
        {
          "internalType": "address",
          "name": "account",
          "type": "address"
        }
      ],
      "name": "balanceOf",
      "outputs": [
        {
          "internalType": "uint256",
          "name": "",
          "type": "uint256"
        }
      ],
      "stateMutability": "view",
      "type": "function"
    },
    {
      "inputs": [],
      "name": "decimals",
      "outputs": [
        {
          "internalType": "uint8",
          "name": "",
          "type": "uint8"
        }
      ],
      "stateMutability": "view",
      "type": "function"
    },
    {
      "inputs": [
        {
          "internalType": "address",
          "name": "spender",
          "type": "address"
        },
        {
          "internalType": "uint256",
          "name": "subtractedValue",
          "type": "uint256"
        }
      ],
      "name": "decreaseAllowance",
      "outputs": [
        {
          "internalType": "bool",
          "name": "",
          "type": "bool"
        }
      ],
      "stateMutability": "nonpayable",
      "type": "function"
    },
    {
      "inputs": [],
      "name": "description",
      "outputs": [
        {
          "internalType": "string",
          "name": "",
          "type": "string"
        }
      ],
      "stateMutability": "view",
      "type": "function"
    },
    {
      "inputs": [
        {
          "internalType": "address",
          "name": "spender",
          "type": "address"
        },
        {
          "internalType": "uint256",
          "name": "addedValue",
          "type": "uint256"
        }
      ],
      "name": "increaseAllowance",
      "outputs": [
        {
          "internalType": "bool",
          "name": "",
          "type": "bool"
        }
      ],
      "stateMutability": "nonpayable",
      "type": "function"
    },
    {
      "inputs": [],
      "name": "isDutchAuction",
      "outputs": [
        {
          "internalType": "bool",
          "name": "",
          "type": "bool"
        }
      ],
      "stateMutability": "view",
      "type": "function"
    },
    {
      "inputs": [],
      "name": "manager",
      "outputs": [
        {
          "internalType": "address",
          "name": "",
          "type": "address"
        }
      ],
      "stateMutability": "view",
      "type": "function"
    },
    {
      "inputs": [],
      "name": "name",
      "outputs": [
        {
          "internalType": "string",
          "name": "",
          "type": "string"
        }
      ],
      "stateMutability": "view",
      "type": "function"
    },
    {
      "inputs": [
        {
          "internalType": "uint256",
          "name": "",
          "type": "uint256"
        }
      ],
      "name": "sellings",
      "outputs": [
        {
          "internalType": "address",
          "name": "seller",
          "type": "address"
        },
        {
          "internalType": "uint256",
          "name": "amountToSell",
          "type": "uint256"
        },
        {
          "internalType": "bool",
          "name": "completed",
          "type": "bool"
        }
      ],
      "stateMutability": "view",
      "type": "function"
    },
    {
      "inputs": [],
      "name": "startDate",
      "outputs": [
        {
          "internalType": "uint256",
          "name": "",
          "type": "uint256"
        }
      ],
      "stateMutability": "view",
      "type": "function"
    },
    {
      "inputs": [],
      "name": "symbol",
      "outputs": [
        {
          "internalType": "string",
          "name": "",
          "type": "string"
        }
      ],
      "stateMutability": "view",
      "type": "function"
    },
    {
      "inputs": [],
      "name": "timeToBuyInHours",
      "outputs": [
        {
          "internalType": "uint256",
          "name": "",
          "type": "uint256"
        }
      ],
      "stateMutability": "view",
      "type": "function"
    },
    {
      "inputs": [],
      "name": "title",
      "outputs": [
        {
          "internalType": "string",
          "name": "",
          "type": "string"
        }
      ],
      "stateMutability": "view",
      "type": "function"
    },
    {
      "inputs": [],
      "name": "tokenPrice",
      "outputs": [
        {
          "internalType": "uint256",
          "name": "",
          "type": "uint256"
        }
      ],
      "stateMutability": "view",
      "type": "function"
    },
    {
      "inputs": [],
      "name": "tokensPerInvestor",
      "outputs": [
        {
          "internalType": "uint256",
          "name": "",
          "type": "uint256"
        }
      ],
      "stateMutability": "view",
      "type": "function"
    },
    {
      "inputs": [],
      "name": "totalSupply",
      "outputs": [
        {
          "internalType": "uint256",
          "name": "",
          "type": "uint256"
        }
      ],
      "stateMutability": "view",
      "type": "function"
    },
    {
      "inputs": [
        {
          "internalType": "address",
          "name": "from",
          "type": "address"
        },
        {
          "internalType": "address",
          "name": "to",
          "type": "address"
        },
        {
          "internalType": "uint256",
          "name": "amount",
          "type": "uint256"
        }
      ],
      "name": "transferFrom",
      "outputs": [
        {
          "internalType": "bool",
          "name": "",
          "type": "bool"
        }
      ],
      "stateMutability": "nonpayable",
      "type": "function"
    },
    {
      "inputs": [
        {
          "internalType": "uint256",
          "name": "",
          "type": "uint256"
        }
      ],
      "name": "waitingList",
      "outputs": [
        {
          "internalType": "address",
          "name": "",
          "type": "address"
        }
      ],
      "stateMutability": "view",
      "type": "function"
    },
    {
      "inputs": [
        {
          "internalType": "address",
          "name": "",
          "type": "address"
        }
      ],
      "name": "whiteListedInvestors",
      "outputs": [
        {
          "internalType": "bool",
          "name": "whiteListed",
          "type": "bool"
        },
        {
          "internalType": "uint256",
          "name": "timeLastBoughtTokens",
          "type": "uint256"
        }
      ],
      "stateMutability": "view",
      "type": "function"
    },
    {
      "inputs": [
        {
          "internalType": "uint256",
          "name": "_amountOfTokens",
          "type": "uint256"
        }
      ],
      "name": "buyIssuedAuctionTokensFromManager",
      "outputs": [
        {
          "internalType": "uint256",
          "name": "tokenAmount",
          "type": "uint256"
        }
      ],
      "stateMutability": "payable",
      "type": "function"
    },
    {
      "inputs": [
        {
          "internalType": "uint256",
          "name": "_amountToSell",
          "type": "uint256"
        },
        {
          "internalType": "uint256",
          "name": "_startingPrice",
          "type": "uint256"
        },
        {
          "internalType": "uint256",
          "name": "_minimumPrice",
          "type": "uint256"
        },
        {
          "internalType": "uint256",
          "name": "_durationInMinutes",
          "type": "uint256"
        }
      ],
      "name": "startAuction",
      "outputs": [],
      "stateMutability": "nonpayable",
      "type": "function"
    },
    {
      "inputs": [
        {
          "internalType": "uint256",
          "name": "index",
          "type": "uint256"
        }
      ],
      "name": "getAuctionPrice",
      "outputs": [
        {
          "internalType": "uint256",
          "name": "",
          "type": "uint256"
        }
      ],
      "stateMutability": "view",
      "type": "function"
    },
    {
      "inputs": [
        {
          "internalType": "uint256",
          "name": "index",
          "type": "uint256"
        }
      ],
      "name": "buyAuctionToken",
      "outputs": [],
      "stateMutability": "payable",
      "type": "function"
    },
    {
      "inputs": [
        {
          "internalType": "uint256",
          "name": "_amountOfTokens",
          "type": "uint256"
        }
      ],
      "name": "buyIssuedWaitingListTokensFromManager",
      "outputs": [
        {
          "internalType": "uint256",
          "name": "tokenAmount",
          "type": "uint256"
        }
      ],
      "stateMutability": "payable",
      "type": "function"
    },
    {
      "inputs": [
        {
          "internalType": "uint256",
          "name": "_amountToSell",
          "type": "uint256"
        }
      ],
      "name": "sellWaitingListToken",
      "outputs": [],
      "stateMutability": "nonpayable",
      "type": "function"
    },
    {
      "inputs": [
        {
          "internalType": "uint256",
          "name": "index",
          "type": "uint256"
        },
        {
          "internalType": "uint256",
          "name": "_amountOfTokens",
          "type": "uint256"
        }
      ],
      "name": "buyWaitingListToken",
      "outputs": [
        {
          "internalType": "uint256",
          "name": "tokenAmount",
          "type": "uint256"
        }
      ],
      "stateMutability": "payable",
      "type": "function"
    },
    {
      "inputs": [],
      "name": "withdraw",
      "outputs": [],
      "stateMutability": "nonpayable",
      "type": "function"
    },
    {
      "inputs": [
        {
          "internalType": "address",
          "name": "_addressToWhitelist",
          "type": "address"
        }
      ],
      "name": "addInvestor",
      "outputs": [],
      "stateMutability": "nonpayable",
      "type": "function"
    },
    {
      "inputs": [
        {
          "internalType": "address",
          "name": "_addressToBlacklist",
          "type": "address"
        }
      ],
      "name": "removeInvestor",
      "outputs": [],
      "stateMutability": "nonpayable",
      "type": "function"
    },
    {
      "inputs": [
        {
          "internalType": "uint256",
          "name": "_amountOfTokens",
          "type": "uint256"
        }
      ],
      "name": "mintNewTokens",
      "outputs": [
        {
          "internalType": "uint256",
          "name": "",
          "type": "uint256"
        }
      ],
      "stateMutability": "nonpayable",
      "type": "function"
    },
    {
      "inputs": [
        {
          "internalType": "uint256",
          "name": "_newTokenPrice",
          "type": "uint256"
        }
      ],
      "name": "setTokenPrice",
      "outputs": [
        {
          "internalType": "uint256",
          "name": "",
          "type": "uint256"
        }
      ],
      "stateMutability": "nonpayable",
      "type": "function"
    },
    {
      "inputs": [
        {
          "internalType": "uint256",
          "name": "_newTokenCap",
          "type": "uint256"
        }
      ],
      "name": "setTokenPerInvestor",
      "outputs": [
        {
          "internalType": "uint256",
          "name": "",
          "type": "uint256"
        }
      ],
      "stateMutability": "nonpayable",
      "type": "function"
    },
    {
      "inputs": [
        {
          "internalType": "uint256",
          "name": "_NewTimeToBuyInHours",
          "type": "uint256"
        }
      ],
      "name": "setTimeSlot",
      "outputs": [
        {
          "internalType": "uint256",
          "name": "",
          "type": "uint256"
        }
      ],
      "stateMutability": "nonpayable",
      "type": "function"
    },
    {
      "inputs": [
        {
          "internalType": "address",
          "name": "_investor",
          "type": "address"
        }
      ],
      "name": "findIndexInArray",
      "outputs": [
        {
          "internalType": "int256",
          "name": "",
          "type": "int256"
        }
      ],
      "stateMutability": "view",
      "type": "function"
    },
    {
      "inputs": [
        {
          "internalType": "uint256",
          "name": "idx",
          "type": "uint256"
        }
      ],
      "name": "checkTimeRestriction",
      "outputs": [],
      "stateMutability": "view",
      "type": "function"
    },
    {
      "inputs": [],
      "name": "getSummary",
      "outputs": [
        {
          "internalType": "address",
          "name": "",
          "type": "address"
        },
        {
          "internalType": "string",
          "name": "",
          "type": "string"
        },
        {
          "internalType": "string",
          "name": "",
          "type": "string"
        },
        {
          "internalType": "uint256",
          "name": "",
          "type": "uint256"
        },
        {
          "internalType": "uint256",
          "name": "",
          "type": "uint256"
        },
        {
          "internalType": "uint256",
          "name": "",
          "type": "uint256"
        },
        {
          "internalType": "uint256",
          "name": "",
          "type": "uint256"
        },
        {
          "internalType": "bool",
          "name": "",
          "type": "bool"
        },
        {
          "internalType": "address[]",
          "name": "",
          "type": "address[]"
        },
        {
          "components": [
            {
              "internalType": "address",
              "name": "seller",
              "type": "address"
            },
            {
              "internalType": "uint256",
              "name": "amountToSell",
              "type": "uint256"
            },
            {
              "internalType": "uint256",
              "name": "startingPrice",
              "type": "uint256"
            },
            {
              "internalType": "uint256",
              "name": "minimumPrice",
              "type": "uint256"
            },
            {
              "internalType": "uint256",
              "name": "startAt",
              "type": "uint256"
            },
            {
              "internalType": "uint256",
              "name": "expiresAt",
              "type": "uint256"
            },
            {
              "internalType": "bool",
              "name": "completed",
              "type": "bool"
            }
          ],
          "internalType": "struct ClosedEndFund.Auction[]",
          "name": "",
          "type": "tuple[]"
        },
        {
          "components": [
            {
              "internalType": "address",
              "name": "seller",
              "type": "address"
            },
            {
              "internalType": "uint256",
              "name": "amountToSell",
              "type": "uint256"
            },
            {
              "internalType": "bool",
              "name": "completed",
              "type": "bool"
            }
          ],
          "internalType": "struct ClosedEndFund.Selling[]",
          "name": "",
          "type": "tuple[]"
        }
      ],
      "stateMutability": "view",
      "type": "function"
    },
    {
      "inputs": [
        {
          "internalType": "address",
          "name": "_recipient",
          "type": "address"
        },
        {
          "internalType": "uint256",
          "name": "_amount",
          "type": "uint256"
        }
      ],
      "name": "transfer",
      "outputs": [
        {
          "internalType": "bool",
          "name": "",
          "type": "bool"
        }
      ],
      "stateMutability": "nonpayable",
      "type": "function"
    },
    {
      "inputs": [
        {
          "internalType": "address",
          "name": "spender",
          "type": "address"
        },
        {
          "internalType": "uint256",
          "name": "amount",
          "type": "uint256"
        }
      ],
      "name": "approve",
      "outputs": [
        {
          "internalType": "bool",
          "name": "",
          "type": "bool"
        }
      ],
      "stateMutability": "nonpayable",
      "type": "function"
    }
  ],
  "bytecode": "0x60806040523480156200001157600080fd5b5060405162005ca938038062005ca983398181016040528101906200003791906200069f565b88856040518060400160405280600981526020017f43454620544f4b454e00000000000000000000000000000000000000000000008152506040518060400160405280600381526020017f43454600000000000000000000000000000000000000000000000000000000008152508160039080519060200190620000bd92919062000407565b508060049080519060200190620000d692919062000407565b505050620000eb82826200028460201b60201c565b505088600560006101000a81548173ffffffffffffffffffffffffffffffffffffffff021916908373ffffffffffffffffffffffffffffffffffffffff16021790555087600690805190602001906200014692919062000407565b5086600790805190602001906200015f92919062000407565b50856008819055508360098190555082600c60006101000a81548160ff02191690831515021790555081600a8190555042600b8190555080600d9080519060200190620001ae92919062000498565b5060005b815181101562000274576000828281518110620001f8577f4e487b7100000000000000000000000000000000000000000000000000000000600052603260045260246000fd5b602002602001015190506001601060008373ffffffffffffffffffffffffffffffffffffffff1673ffffffffffffffffffffffffffffffffffffffff16815260200190815260200160002060000160006101000a81548160ff0219169083151502179055505080806200026b9062000a0f565b915050620001b2565b5050505050505050505062000b38565b600073ffffffffffffffffffffffffffffffffffffffff168273ffffffffffffffffffffffffffffffffffffffff161415620002f7576040517f08c379a0000000000000000000000000000000000000000000000000000000008152600401620002ee9062000816565b60405180910390fd5b6200030b60008383620003fd60201b60201c565b80600260008282546200031f9190620008fc565b92505081905550806000808473ffffffffffffffffffffffffffffffffffffffff1673ffffffffffffffffffffffffffffffffffffffff1681526020019081526020016000206000828254620003769190620008fc565b925050819055508173ffffffffffffffffffffffffffffffffffffffff16600073ffffffffffffffffffffffffffffffffffffffff167fddf252ad1be2c89b69c2b068fc378daa952ba7f163c4a11628f55a4df523b3ef83604051620003dd919062000838565b60405180910390a3620003f9600083836200040260201b60201c565b5050565b505050565b505050565b8280546200041590620009d9565b90600052602060002090601f01602090048101928262000439576000855562000485565b82601f106200045457805160ff191683800117855562000485565b8280016001018555821562000485579182015b828111156200048457825182559160200191906001019062000467565b5b50905062000494919062000527565b5090565b82805482825590600052602060002090810192821562000514579160200282015b82811115620005135782518260006101000a81548173ffffffffffffffffffffffffffffffffffffffff021916908373ffffffffffffffffffffffffffffffffffffffff16021790555091602001919060010190620004b9565b5b50905062000523919062000527565b5090565b5b808211156200054257600081600090555060010162000528565b5090565b60006200055d620005578462000889565b62000855565b905080838252602082019050828560208602820111156200057d57600080fd5b60005b85811015620005b1578162000596888262000600565b84526020840193506020830192505060018101905062000580565b5050509392505050565b6000620005d2620005cc84620008b8565b62000855565b905082815260208101848484011115620005eb57600080fd5b620005f8848285620009a3565b509392505050565b600081519050620006118162000aea565b92915050565b600082601f8301126200062957600080fd5b81516200063b84826020860162000546565b91505092915050565b600081519050620006558162000b04565b92915050565b600082601f8301126200066d57600080fd5b81516200067f848260208601620005bb565b91505092915050565b600081519050620006998162000b1e565b92915050565b60008060008060008060008060006101208a8c031215620006bf57600080fd5b6000620006cf8c828d0162000600565b99505060208a015167ffffffffffffffff811115620006ed57600080fd5b620006fb8c828d016200065b565b98505060408a015167ffffffffffffffff8111156200071957600080fd5b620007278c828d016200065b565b97505060606200073a8c828d0162000688565b96505060806200074d8c828d0162000688565b95505060a0620007608c828d0162000688565b94505060c0620007738c828d0162000644565b93505060e0620007868c828d0162000688565b9250506101008a015167ffffffffffffffff811115620007a557600080fd5b620007b38c828d0162000617565b9150509295985092959850929598565b6000620007d2601f83620008eb565b91507f45524332303a206d696e7420746f20746865207a65726f2061646472657373006000830152602082019050919050565b620008108162000999565b82525050565b600060208201905081810360008301526200083181620007c3565b9050919050565b60006020820190506200084f600083018462000805565b92915050565b6000604051905081810181811067ffffffffffffffff821117156200087f576200087e62000abb565b5b8060405250919050565b600067ffffffffffffffff821115620008a757620008a662000abb565b5b602082029050602081019050919050565b600067ffffffffffffffff821115620008d657620008d562000abb565b5b601f19601f8301169050602081019050919050565b600082825260208201905092915050565b6000620009098262000999565b9150620009168362000999565b9250827fffffffffffffffffffffffffffffffffffffffffffffffffffffffffffffffff038211156200094e576200094d62000a5d565b5b828201905092915050565b6000620009668262000979565b9050919050565b60008115159050919050565b600073ffffffffffffffffffffffffffffffffffffffff82169050919050565b6000819050919050565b60005b83811015620009c3578082015181840152602081019050620009a6565b83811115620009d3576000848401525b50505050565b60006002820490506001821680620009f257607f821691505b6020821081141562000a095762000a0862000a8c565b5b50919050565b600062000a1c8262000999565b91507fffffffffffffffffffffffffffffffffffffffffffffffffffffffffffffffff82141562000a525762000a5162000a5d565b5b600182019050919050565b7f4e487b7100000000000000000000000000000000000000000000000000000000600052601160045260246000fd5b7f4e487b7100000000000000000000000000000000000000000000000000000000600052602260045260246000fd5b7f4e487b7100000000000000000000000000000000000000000000000000000000600052604160045260246000fd5b62000af58162000959565b811462000b0157600080fd5b50565b62000b0f816200096d565b811462000b1b57600080fd5b50565b62000b298162000999565b811462000b3557600080fd5b50565b6151618062000b486000396000f3fe60806040526004361061023a5760003560e01c8063571a26a01161012e57806395d89b41116100ab578063b499e6c61161006f578063b499e6c614610927578063dd62ed3e14610952578063e1ba2a271461098f578063e641bde1146109b8578063e7a20f3f146109e15761023a565b806395d89b41146108135780639ce4330a1461083e578063a457c2d71461086e578063a9059cbb146108ab578063b4991743146108e85761023a565b80637284e416116100f25780637284e416146107275780637ff9b596146107525780638d2c44881461077d578063917d009e146107a657806394831bde146107e35761023a565b8063571a26a0146105ef5780636678f7a01461063257806369a88504146106705780636a61e5fc146106ad57806370a08231146106ea5761023a565b80633364593d116101bc5780634051ddac116101805780634051ddac1461050b5780634271497814610540578063481c6a75146105695780634a79d50c146105945780635247638c146105bf5761023a565b80633364593d1461041457806337e7b4b514610451578063395093511461047a57806339db09e7146104b75780633ccfd60b146104f45761023a565b806323b872dd1161020357806323b872dd1461031957806324407f7c14610356578063269ad71814610381578063310c6226146103ac578063313ce567146103e95761023a565b8062bcbd251461023f57806306fdde031461025b578063095ea7b3146102865780630b97bc86146102c357806318160ddd146102ee575b600080fd5b61025960048036038101906102549190613934565b610a1e565b005b34801561026757600080fd5b50610270610c7c565b60405161027d919061494d565b60405180910390f35b34801561029257600080fd5b506102ad60048036038101906102a891906138f8565b610d0e565b6040516102ba91906148ee565b60405180910390f35b3480156102cf57600080fd5b506102d8610d2d565b6040516102e59190614d0f565b60405180910390f35b3480156102fa57600080fd5b50610303610d33565b6040516103109190614d0f565b60405180910390f35b34801561032557600080fd5b50610340600480360381019061033b91906138a9565b610d3d565b60405161034d91906148ee565b60405180910390f35b34801561036257600080fd5b5061036b610d6c565b6040516103789190614d0f565b60405180910390f35b34801561038d57600080fd5b50610396610d72565b6040516103a39190614d0f565b60405180910390f35b3480156103b857600080fd5b506103d360048036038101906103ce9190613934565b610d78565b6040516103e09190614d0f565b60405180910390f35b3480156103f557600080fd5b506103fe610ded565b60405161040b9190614d2a565b60405180910390f35b34801561042057600080fd5b5061043b60048036038101906104369190613934565b610df6565b6040516104489190614d0f565b60405180910390f35b34801561045d57600080fd5b5061047860048036038101906104739190613934565b610e4a565b005b34801561048657600080fd5b506104a1600480360381019061049c91906138f8565b611072565b6040516104ae91906148ee565b60405180910390f35b3480156104c357600080fd5b506104de60048036038101906104d99190613844565b61111c565b6040516104eb9190614932565b60405180910390f35b34801561050057600080fd5b50610509611214565b005b34801561051757600080fd5b506105206112ae565b6040516105379b9a9998979695949392919061477a565b60405180910390f35b34801561054c57600080fd5b5061056760048036038101906105629190613844565b61169c565b005b34801561057557600080fd5b5061057e611981565b60405161058b919061471a565b60405180910390f35b3480156105a057600080fd5b506105a96119a7565b6040516105b6919061494d565b60405180910390f35b6105d960048036038101906105d49190613934565b611a35565b6040516105e69190614d0f565b60405180910390f35b3480156105fb57600080fd5b5061061660048036038101906106119190613934565b611d49565b604051610629979695949392919061487f565b60405180910390f35b34801561063e57600080fd5b5061065960048036038101906106549190613844565b611dc8565b604051610667929190614909565b60405180910390f35b34801561067c57600080fd5b5061069760048036038101906106929190613934565b611df9565b6040516106a49190614d0f565b60405180910390f35b3480156106b957600080fd5b506106d460048036038101906106cf9190613934565b611e4d565b6040516106e19190614d0f565b60405180910390f35b3480156106f657600080fd5b50610711600480360381019061070c9190613844565b611ea1565b60405161071e9190614d0f565b60405180910390f35b34801561073357600080fd5b5061073c611ee9565b604051610749919061494d565b60405180910390f35b34801561075e57600080fd5b50610767611f77565b6040516107749190614d0f565b60405180910390f35b34801561078957600080fd5b506107a4600480360381019061079f91906139c2565b611f7d565b005b3480156107b257600080fd5b506107cd60048036038101906107c89190613934565b612196565b6040516107da9190614d0f565b60405180910390f35b6107fd60048036038101906107f89190613934565b612312565b60405161080a9190614d0f565b60405180910390f35b34801561081f57600080fd5b5061082861253f565b604051610835919061494d565b60405180910390f35b61085860048036038101906108539190613986565b6125d1565b6040516108659190614d0f565b60405180910390f35b34801561087a57600080fd5b50610895600480360381019061089091906138f8565b612a3b565b6040516108a291906148ee565b60405180910390f35b3480156108b757600080fd5b506108d260048036038101906108cd91906138f8565b612b25565b6040516108df91906148ee565b60405180910390f35b3480156108f457600080fd5b5061090f600480360381019061090a9190613934565b612b44565b60405161091e93929190614848565b60405180910390f35b34801561093357600080fd5b5061093c612bab565b60405161094991906148ee565b60405180910390f35b34801561095e57600080fd5b506109796004803603810190610974919061386d565b612bbe565b6040516109869190614d0f565b60405180910390f35b34801561099b57600080fd5b506109b660048036038101906109b19190613934565b612c45565b005b3480156109c457600080fd5b506109df60048036038101906109da9190613844565b612e04565b005b3480156109ed57600080fd5b50610a086004803603810190610a039190613934565b612f5d565b604051610a15919061471a565b60405180910390f35b610a26612f9c565b6000600e8281548110610a62577f4e487b7100000000000000000000000000000000000000000000000000000000600052603260045260246000fd5b906000526020600020906007020190508060060160009054906101000a900460ff1615610ac4576040517f08c379a0000000000000000000000000000000000000000000000000000000008152600401610abb90614a8f565b60405180910390fd5b80600501544210610b0a576040517f08c379a0000000000000000000000000000000000000000000000000000000008152600401610b0190614acf565b60405180910390fd5b6000610b1583612196565b905080341015610b5a576040517f08c379a0000000000000000000000000000000000000000000000000000000008152600401610b5190614b0f565b60405180910390fd5b60018260060160006101000a81548160ff021916908315150217905550610baa8260000160009054906101000a900473ffffffffffffffffffffffffffffffffffffffff16338460010154612fed565b60008134610bb89190614eed565b90506000811115610c0b573373ffffffffffffffffffffffffffffffffffffffff166108fc829081150290604051600060405180830381858888f19350505050158015610c09573d6000803e3d6000fd5b505b8260000160009054906101000a900473ffffffffffffffffffffffffffffffffffffffff1673ffffffffffffffffffffffffffffffffffffffff166108fc839081150290604051600060405180830381858888f19350505050158015610c75573d6000803e3d6000fd5b5050505050565b606060038054610c8b90614fb3565b80601f0160208091040260200160405190810160405280929190818152602001828054610cb790614fb3565b8015610d045780601f10610cd957610100808354040283529160200191610d04565b820191906000526020600020905b815481529060010190602001808311610ce757829003601f168201915b5050505050905090565b6000610d1861326e565b610d23338484613300565b6001905092915050565b600b5481565b6000600254905090565b600080610d486134cb565b9050610d558582856134d3565b610d60858585612fed565b60019150509392505050565b60095481565b600a5481565b6000610d8261326e565b610dae600560009054906101000a900473ffffffffffffffffffffffffffffffffffffffff168361355f565b7ff7c2cba1e426a73e262aa4840a2a0b889c6800be6533ecd35de40fd768f5b79282604051610ddd9190614d0f565b60405180910390a1819050919050565b60006012905090565b6000610e0061326e565b81600a819055507fc833760944e6c23836af6b2d5322e1ee6dc361d2bfb1333f546d900ff37732fe600a54604051610e389190614d0f565b60405180910390a1600a549050919050565b610e526136bf565b6000600d80549050603c80600a54610e6a9190614e93565b610e749190614e93565b610e7e9190614e93565b600b54610e8b9190614e0c565b90506000600b54600b5483610ea09190614eed565b600b5442610eae9190614eed565b610eb8919061502e565b610ec29190614e0c565b90506000603c80600a5486610ed79190614e93565b610ee19190614e93565b610eeb9190614e93565b600b54610ef89190614e0c565b90506000603c80600a54600188610f0f9190614e0c565b610f199190614e93565b610f239190614e93565b610f2d9190614e93565b600b54610f3a9190614e0c565b9050603c80600a54610f4c9190614e93565b610f569190614e93565b42610f619190614eed565b601060003373ffffffffffffffffffffffffffffffffffffffff1673ffffffffffffffffffffffffffffffffffffffff168152602001908152602001600020600101541115610fe5576040517f08c379a0000000000000000000000000000000000000000000000000000000008152600401610fdc90614baf565b60405180910390fd5b82821115611028576040517f08c379a000000000000000000000000000000000000000000000000000000000815260040161101f90614a2f565b60405180910390fd5b8083111561106b576040517f08c379a000000000000000000000000000000000000000000000000000000000815260040161106290614c8f565b60405180910390fd5b5050505050565b60008061107d6134cb565b9050611111818585600160008673ffffffffffffffffffffffffffffffffffffffff1673ffffffffffffffffffffffffffffffffffffffff16815260200190815260200160002060008973ffffffffffffffffffffffffffffffffffffffff1673ffffffffffffffffffffffffffffffffffffffff1681526020019081526020016000205461110c9190614e0c565b613300565b600191505092915050565b60006111266136bf565b60005b600d805490508110156111ea578273ffffffffffffffffffffffffffffffffffffffff16600d8281548110611187577f4e487b7100000000000000000000000000000000000000000000000000000000600052603260045260246000fd5b9060005260206000200160009054906101000a900473ffffffffffffffffffffffffffffffffffffffff1673ffffffffffffffffffffffffffffffffffffffff1614156111d7578091505061120f565b80806111e290614fe5565b915050611129565b507fffffffffffffffffffffffffffffffffffffffffffffffffffffffffffffffff90505b919050565b61121c61326e565b600047905060008111611264576040517f08c379a000000000000000000000000000000000000000000000000000000000815260040161125b9061496f565b60405180910390fd5b3373ffffffffffffffffffffffffffffffffffffffff166108fc829081150290604051600060405180830381858888f193505050501580156112aa573d6000803e3d6000fd5b5050565b600060608060008060008060006060806060600560009054906101000a900473ffffffffffffffffffffffffffffffffffffffff1660066007600854600954600a54600b54600c60009054906101000a900460ff16600d600e600f89805461131590614fb3565b80601f016020809104026020016040519081016040528092919081815260200182805461134190614fb3565b801561138e5780601f106113635761010080835404028352916020019161138e565b820191906000526020600020905b81548152906001019060200180831161137157829003601f168201915b505050505099508880546113a190614fb3565b80601f01602080910402602001604051908101604052809291908181526020018280546113cd90614fb3565b801561141a5780601f106113ef5761010080835404028352916020019161141a565b820191906000526020600020905b8154815290600101906020018083116113fd57829003601f168201915b50505050509850828054806020026020016040519081016040528092919081815260200182805480156114a257602002820191906000526020600020905b8160009054906101000a900473ffffffffffffffffffffffffffffffffffffffff1673ffffffffffffffffffffffffffffffffffffffff1681526020019060010190808311611458575b5050505050925081805480602002602001604051908101604052809291908181526020016000905b8282101561159f57838290600052602060002090600702016040518060e00160405290816000820160009054906101000a900473ffffffffffffffffffffffffffffffffffffffff1673ffffffffffffffffffffffffffffffffffffffff1673ffffffffffffffffffffffffffffffffffffffff16815260200160018201548152602001600282015481526020016003820154815260200160048201548152602001600582015481526020016006820160009054906101000a900460ff161515151581525050815260200190600101906114ca565b50505050915080805480602002602001604051908101604052809291908181526020016000905b8282101561167357838290600052602060002090600302016040518060600160405290816000820160009054906101000a900473ffffffffffffffffffffffffffffffffffffffff1673ffffffffffffffffffffffffffffffffffffffff1673ffffffffffffffffffffffffffffffffffffffff168152602001600182015481526020016002820160009054906101000a900460ff161515151581525050815260200190600101906115c6565b5050505090509a509a509a509a509a509a509a509a509a509a509a50909192939495969798999a565b6116a461326e565b601060008273ffffffffffffffffffffffffffffffffffffffff1673ffffffffffffffffffffffffffffffffffffffff16815260200190815260200160002060000160009054906101000a900460ff16611733576040517f08c379a000000000000000000000000000000000000000000000000000000000815260040161172a906149af565b60405180910390fd5b6000601060008373ffffffffffffffffffffffffffffffffffffffff1673ffffffffffffffffffffffffffffffffffffffff16815260200190815260200160002060000160006101000a81548160ff02191690831515021790555060006117998261111c565b905060008112156117df576040517f08c379a00000000000000000000000000000000000000000000000000000000081526004016117d690614b4f565b60405180910390fd5b60008190505b6001600d805490506117f79190614eed565b81101561190457600d60018261180d9190614e0c565b81548110611844577f4e487b7100000000000000000000000000000000000000000000000000000000600052603260045260246000fd5b9060005260206000200160009054906101000a900473ffffffffffffffffffffffffffffffffffffffff16600d82815481106118a9577f4e487b7100000000000000000000000000000000000000000000000000000000600052603260045260246000fd5b9060005260206000200160006101000a81548173ffffffffffffffffffffffffffffffffffffffff021916908373ffffffffffffffffffffffffffffffffffffffff16021790555080806118fc90614fe5565b9150506117e5565b50600d6001600d805490506119199190614eed565b81548110611950577f4e487b7100000000000000000000000000000000000000000000000000000000600052603260045260246000fd5b9060005260206000200160006101000a81549073ffffffffffffffffffffffffffffffffffffffff02191690555050565b600560009054906101000a900473ffffffffffffffffffffffffffffffffffffffff1681565b600680546119b490614fb3565b80601f01602080910402602001604051908101604052809291908181526020018280546119e090614fb3565b8015611a2d5780601f10611a0257610100808354040283529160200191611a2d565b820191906000526020600020905b815481529060010190602001808311611a1057829003601f168201915b505050505081565b600033611a4181613711565b611a496136bf565b60003411611a8c576040517f08c379a0000000000000000000000000000000000000000000000000000000008152600401611a83906149ef565b60405180910390fd5b60085483611a9a9190614e93565b3414611adb576040517f08c379a0000000000000000000000000000000000000000000000000000000008152600401611ad290614aaf565b60405180910390fd5b826009541015611b20576040517f08c379a0000000000000000000000000000000000000000000000000000000008152600401611b1790614b8f565b60405180910390fd5b60003073ffffffffffffffffffffffffffffffffffffffff166370a08231600560009054906101000a900473ffffffffffffffffffffffffffffffffffffffff166040518263ffffffff1660e01b8152600401611b7d919061471a565b60206040518083038186803b158015611b9557600080fd5b505afa158015611ba9573d6000803e3d6000fd5b505050506040513d601f19601f82011682018060405250810190611bcd919061395d565b905083811015611c12576040517f08c379a0000000000000000000000000000000000000000000000000000000008152600401611c0990614b2f565b60405180910390fd5b6000611c1d3361111c565b90506000811215611c63576040517f08c379a0000000000000000000000000000000000000000000000000000000008152600401611c5a90614b4f565b60405180910390fd5b611c6c81610e4a565b42601060003373ffffffffffffffffffffffffffffffffffffffff1673ffffffffffffffffffffffffffffffffffffffff16815260200190815260200160002060010181905550611ce0600560009054906101000a900473ffffffffffffffffffffffffffffffffffffffff163387612fed565b7e77a7b9b8b8207f3903ca75eade7730a828eadd952909ed2de6b640b069fb1733600560009054906101000a900473ffffffffffffffffffffffffffffffffffffffff163488604051611d369493929190614735565b60405180910390a1849350505050919050565b600e8181548110611d5957600080fd5b90600052602060002090600702016000915090508060000160009054906101000a900473ffffffffffffffffffffffffffffffffffffffff16908060010154908060020154908060030154908060040154908060050154908060060160009054906101000a900460ff16905087565b60106020528060005260406000206000915090508060000160009054906101000a900460ff16908060010154905082565b6000611e0361326e565b816009819055507f825c9fb4f0cffa3329d32476caa1427e0e8cc52846ff8bf879ba6e200e2479ec600854604051611e3b9190614d0f565b60405180910390a16009549050919050565b6000611e5761326e565b816008819055507f297b2709db98e958b5f673299215a4cb8d126c14a9e52a52901016cf9ba405ab600854604051611e8f9190614d0f565b60405180910390a16008549050919050565b60008060008373ffffffffffffffffffffffffffffffffffffffff1673ffffffffffffffffffffffffffffffffffffffff168152602001908152602001600020549050919050565b60078054611ef690614fb3565b80601f0160208091040260200160405190810160405280929190818152602001828054611f2290614fb3565b8015611f6f5780601f10611f4457610100808354040283529160200191611f6f565b820191906000526020600020905b815481529060010190602001808311611f5257829003601f168201915b505050505081565b60085481565b33611f8781613711565b611f8f612f9c565b60003073ffffffffffffffffffffffffffffffffffffffff166370a08231336040518263ffffffff1660e01b8152600401611fca919061471a565b60206040518083038186803b158015611fe257600080fd5b505afa158015611ff6573d6000803e3d6000fd5b505050506040513d601f19601f8201168201806040525081019061201a919061395d565b90508581101561205f576040517f08c379a000000000000000000000000000000000000000000000000000000000815260040161205690614c6f565b60405180910390fd5b60006040518060e001604052803373ffffffffffffffffffffffffffffffffffffffff168152602001888152602001878152602001868152602001428152602001603c866120ad9190614e93565b426120b89190614e0c565b8152602001600015158152509050600e81908060018154018082558091505060019003906000526020600020906007020160009091909190915060008201518160000160006101000a81548173ffffffffffffffffffffffffffffffffffffffff021916908373ffffffffffffffffffffffffffffffffffffffff1602179055506020820151816001015560408201518160020155606082015181600301556080820151816004015560a0820151816005015560c08201518160060160006101000a81548160ff021916908315150217905550505050505050505050565b60006121a0612f9c565b6000600e83815481106121dc577f4e487b7100000000000000000000000000000000000000000000000000000000600052603260045260246000fd5b90600052602060002090600702016040518060e00160405290816000820160009054906101000a900473ffffffffffffffffffffffffffffffffffffffff1673ffffffffffffffffffffffffffffffffffffffff1673ffffffffffffffffffffffffffffffffffffffff16815260200160018201548152602001600282015481526020016003820154815260200160048201548152602001600582015481526020016006820160009054906101000a900460ff16151515158152505090506000816060015182604001516122b09190614eed565b9050816020015182608001518360a001516122cb9190614eed565b8360800151426122db9190614eed565b836122e69190614e93565b6122f09190614e62565b83604001516122ff9190614eed565b6123099190614e93565b92505050919050565b60003361231e81613711565b612326612f9c565b60003411612369576040517f08c379a0000000000000000000000000000000000000000000000000000000008152600401612360906149ef565b60405180910390fd5b600854836123779190614e93565b34146123b8576040517f08c379a00000000000000000000000000000000000000000000000000000000081526004016123af90614aaf565b60405180910390fd5b60003073ffffffffffffffffffffffffffffffffffffffff166370a08231600560009054906101000a900473ffffffffffffffffffffffffffffffffffffffff166040518263ffffffff1660e01b8152600401612415919061471a565b60206040518083038186803b15801561242d57600080fd5b505afa158015612441573d6000803e3d6000fd5b505050506040513d601f19601f82011682018060405250810190612465919061395d565b9050838110156124aa576040517f08c379a00000000000000000000000000000000000000000000000000000000081526004016124a190614b2f565b60405180910390fd5b6124d7600560009054906101000a900473ffffffffffffffffffffffffffffffffffffffff163386612fed565b7e77a7b9b8b8207f3903ca75eade7730a828eadd952909ed2de6b640b069fb1733600560009054906101000a900473ffffffffffffffffffffffffffffffffffffffff16348760405161252d9493929190614735565b60405180910390a18392505050919050565b60606004805461254e90614fb3565b80601f016020809104026020016040519081016040528092919081815260200182805461257a90614fb3565b80156125c75780601f1061259c576101008083540402835291602001916125c7565b820191906000526020600020905b8154815290600101906020018083116125aa57829003601f168201915b5050505050905090565b6000336125dd81613711565b6125e56136bf565b6000600f8581548110612621577f4e487b7100000000000000000000000000000000000000000000000000000000600052603260045260246000fd5b906000526020600020906003020190508060020160009054906101000a900460ff1615612683576040517f08c379a000000000000000000000000000000000000000000000000000000000815260040161267a90614bef565b60405180910390fd5b8360095410156126c8576040517f08c379a00000000000000000000000000000000000000000000000000000000081526004016126bf90614b8f565b60405180910390fd5b6000341161270b576040517f08c379a0000000000000000000000000000000000000000000000000000000008152600401612702906149ef565b60405180910390fd5b600854846127199190614e93565b341461275a576040517f08c379a000000000000000000000000000000000000000000000000000000000815260040161275190614aaf565b60405180910390fd5b60003073ffffffffffffffffffffffffffffffffffffffff166370a082318360000160009054906101000a900473ffffffffffffffffffffffffffffffffffffffff166040518263ffffffff1660e01b81526004016127b9919061471a565b60206040518083038186803b1580156127d157600080fd5b505afa1580156127e5573d6000803e3d6000fd5b505050506040513d601f19601f82011682018060405250810190612809919061395d565b90508481101561284e576040517f08c379a000000000000000000000000000000000000000000000000000000000815260040161284590614b6f565b60405180910390fd5b60006128593361111c565b9050600081121561289f576040517f08c379a000000000000000000000000000000000000000000000000000000000815260040161289690614b4f565b60405180910390fd5b6128a881610e4a565b42601060003373ffffffffffffffffffffffffffffffffffffffff1673ffffffffffffffffffffffffffffffffffffffff16815260200190815260200160002060010181905550858360010160008282546129039190614eed565b9250508190555060008360010154116129345760018360020160006101000a81548160ff0219169083151502179055505b6129638360000160009054906101000a900473ffffffffffffffffffffffffffffffffffffffff163388612fed565b7e77a7b9b8b8207f3903ca75eade7730a828eadd952909ed2de6b640b069fb17338460000160009054906101000a900473ffffffffffffffffffffffffffffffffffffffff1634896040516129bb9493929190614735565b60405180910390a18260000160009054906101000a900473ffffffffffffffffffffffffffffffffffffffff1673ffffffffffffffffffffffffffffffffffffffff166108fc349081150290604051600060405180830381858888f19350505050158015612a2d573d6000803e3d6000fd5b508594505050505092915050565b600080612a466134cb565b90506000600160008373ffffffffffffffffffffffffffffffffffffffff1673ffffffffffffffffffffffffffffffffffffffff16815260200190815260200160002060008673ffffffffffffffffffffffffffffffffffffffff1673ffffffffffffffffffffffffffffffffffffffff16815260200190815260200160002054905083811015612b0c576040517f08c379a0000000000000000000000000000000000000000000000000000000008152600401612b0390614ccf565b60405180910390fd5b612b198286868403613300565b60019250505092915050565b6000612b2f61326e565b612b3a338484612fed565b6001905092915050565b600f8181548110612b5457600080fd5b90600052602060002090600302016000915090508060000160009054906101000a900473ffffffffffffffffffffffffffffffffffffffff16908060010154908060020160009054906101000a900460ff16905083565b600c60009054906101000a900460ff1681565b6000600160008473ffffffffffffffffffffffffffffffffffffffff1673ffffffffffffffffffffffffffffffffffffffff16815260200190815260200160002060008373ffffffffffffffffffffffffffffffffffffffff1673ffffffffffffffffffffffffffffffffffffffff16815260200190815260200160002054905092915050565b33612c4f81613711565b612c576136bf565b60003073ffffffffffffffffffffffffffffffffffffffff166370a08231336040518263ffffffff1660e01b8152600401612c92919061471a565b60206040518083038186803b158015612caa57600080fd5b505afa158015612cbe573d6000803e3d6000fd5b505050506040513d601f19601f82011682018060405250810190612ce2919061395d565b905082811015612d27576040517f08c379a0000000000000000000000000000000000000000000000000000000008152600401612d1e90614c6f565b60405180910390fd5b600060405180606001604052803373ffffffffffffffffffffffffffffffffffffffff168152602001858152602001600015158152509050600f81908060018154018082558091505060019003906000526020600020906003020160009091909190915060008201518160000160006101000a81548173ffffffffffffffffffffffffffffffffffffffff021916908373ffffffffffffffffffffffffffffffffffffffff1602179055506020820151816001015560408201518160020160006101000a81548160ff021916908315150217905550505050505050565b612e0c61326e565b601060008273ffffffffffffffffffffffffffffffffffffffff1673ffffffffffffffffffffffffffffffffffffffff16815260200190815260200160002060000160009054906101000a900460ff1615612e9c576040517f08c379a0000000000000000000000000000000000000000000000000000000008152600401612e9390614aef565b60405180910390fd5b6001601060008373ffffffffffffffffffffffffffffffffffffffff1673ffffffffffffffffffffffffffffffffffffffff16815260200190815260200160002060000160006101000a81548160ff021916908315150217905550600d819080600181540180825580915050600190039060005260206000200160009091909190916101000a81548173ffffffffffffffffffffffffffffffffffffffff021916908373ffffffffffffffffffffffffffffffffffffffff16021790555050565b600d8181548110612f6d57600080fd5b906000526020600020016000915054906101000a900473ffffffffffffffffffffffffffffffffffffffff1681565b600c60009054906101000a900460ff16612feb576040517f08c379a0000000000000000000000000000000000000000000000000000000008152600401612fe290614a0f565b60405180910390fd5b565b600073ffffffffffffffffffffffffffffffffffffffff168373ffffffffffffffffffffffffffffffffffffffff16141561305d576040517f08c379a000000000000000000000000000000000000000000000000000000000815260040161305490614c2f565b60405180910390fd5b600073ffffffffffffffffffffffffffffffffffffffff168273ffffffffffffffffffffffffffffffffffffffff1614156130cd576040517f08c379a00000000000000000000000000000000000000000000000000000000081526004016130c49061498f565b60405180910390fd5b6130d88383836137fb565b60008060008573ffffffffffffffffffffffffffffffffffffffff1673ffffffffffffffffffffffffffffffffffffffff1681526020019081526020016000205490508181101561315e576040517f08c379a000000000000000000000000000000000000000000000000000000000815260040161315590614a6f565b60405180910390fd5b8181036000808673ffffffffffffffffffffffffffffffffffffffff1673ffffffffffffffffffffffffffffffffffffffff16815260200190815260200160002081905550816000808573ffffffffffffffffffffffffffffffffffffffff1673ffffffffffffffffffffffffffffffffffffffff16815260200190815260200160002060008282546131f19190614e0c565b925050819055508273ffffffffffffffffffffffffffffffffffffffff168473ffffffffffffffffffffffffffffffffffffffff167fddf252ad1be2c89b69c2b068fc378daa952ba7f163c4a11628f55a4df523b3ef846040516132559190614d0f565b60405180910390a3613268848484613800565b50505050565b600560009054906101000a900473ffffffffffffffffffffffffffffffffffffffff1673ffffffffffffffffffffffffffffffffffffffff163373ffffffffffffffffffffffffffffffffffffffff16146132fe576040517f08c379a00000000000000000000000000000000000000000000000000000000081526004016132f590614caf565b60405180910390fd5b565b600073ffffffffffffffffffffffffffffffffffffffff168373ffffffffffffffffffffffffffffffffffffffff161415613370576040517f08c379a000000000000000000000000000000000000000000000000000000000815260040161336790614c4f565b60405180910390fd5b600073ffffffffffffffffffffffffffffffffffffffff168273ffffffffffffffffffffffffffffffffffffffff1614156133e0576040517f08c379a00000000000000000000000000000000000000000000000000000000081526004016133d7906149cf565b60405180910390fd5b80600160008573ffffffffffffffffffffffffffffffffffffffff1673ffffffffffffffffffffffffffffffffffffffff16815260200190815260200160002060008473ffffffffffffffffffffffffffffffffffffffff1673ffffffffffffffffffffffffffffffffffffffff168152602001908152602001600020819055508173ffffffffffffffffffffffffffffffffffffffff168373ffffffffffffffffffffffffffffffffffffffff167f8c5be1e5ebec7d5bd14f71427d1e84f3dd0314c0f7b2291e5b200ac8c7c3b925836040516134be9190614d0f565b60405180910390a3505050565b600033905090565b60006134df8484612bbe565b90507fffffffffffffffffffffffffffffffffffffffffffffffffffffffffffffffff8114613559578181101561354b576040517f08c379a000000000000000000000000000000000000000000000000000000000815260040161354290614a4f565b60405180910390fd5b6135588484848403613300565b5b50505050565b600073ffffffffffffffffffffffffffffffffffffffff168273ffffffffffffffffffffffffffffffffffffffff1614156135cf576040517f08c379a00000000000000000000000000000000000000000000000000000000081526004016135c690614cef565b60405180910390fd5b6135db600083836137fb565b80600260008282546135ed9190614e0c565b92505081905550806000808473ffffffffffffffffffffffffffffffffffffffff1673ffffffffffffffffffffffffffffffffffffffff16815260200190815260200160002060008282546136429190614e0c565b925050819055508173ffffffffffffffffffffffffffffffffffffffff16600073ffffffffffffffffffffffffffffffffffffffff167fddf252ad1be2c89b69c2b068fc378daa952ba7f163c4a11628f55a4df523b3ef836040516136a79190614d0f565b60405180910390a36136bb60008383613800565b5050565b600c60009054906101000a900460ff161561370f576040517f08c379a000000000000000000000000000000000000000000000000000000000815260040161370690614bcf565b60405180910390fd5b565b601060008273ffffffffffffffffffffffffffffffffffffffff1673ffffffffffffffffffffffffffffffffffffffff16815260200190815260200160002060000160009054906101000a900460ff16806137b95750600560009054906101000a900473ffffffffffffffffffffffffffffffffffffffff1673ffffffffffffffffffffffffffffffffffffffff163373ffffffffffffffffffffffffffffffffffffffff16145b6137f8576040517f08c379a00000000000000000000000000000000000000000000000000000000081526004016137ef90614c0f565b60405180910390fd5b50565b505050565b505050565b600081359050613814816150fd565b92915050565b60008135905061382981615114565b92915050565b60008151905061383e81615114565b92915050565b60006020828403121561385657600080fd5b600061386484828501613805565b91505092915050565b6000806040838503121561388057600080fd5b600061388e85828601613805565b925050602061389f85828601613805565b9150509250929050565b6000806000606084860312156138be57600080fd5b60006138cc86828701613805565b93505060206138dd86828701613805565b92505060406138ee8682870161381a565b9150509250925092565b6000806040838503121561390b57600080fd5b600061391985828601613805565b925050602061392a8582860161381a565b9150509250929050565b60006020828403121561394657600080fd5b60006139548482850161381a565b91505092915050565b60006020828403121561396f57600080fd5b600061397d8482850161382f565b91505092915050565b6000806040838503121561399957600080fd5b60006139a78582860161381a565b92505060206139b88582860161381a565b9150509250929050565b600080600080608085870312156139d857600080fd5b60006139e68782880161381a565b94505060206139f78782880161381a565b9350506040613a088782880161381a565b9250506060613a198782880161381a565b91505092959194509250565b6000613a318383613a6d565b60208301905092915050565b6000613a49838361461d565b60e08301905092915050565b6000613a6183836146ab565b60608301905092915050565b613a7681614f21565b82525050565b613a8581614f21565b82525050565b6000613a9682614d75565b613aa08185614dc8565b9350613aab83614d45565b8060005b83811015613adc578151613ac38882613a25565b9750613ace83614da1565b925050600181019050613aaf565b5085935050505092915050565b6000613af482614d80565b613afe8185614dd9565b9350613b0983614d55565b8060005b83811015613b3a578151613b218882613a3d565b9750613b2c83614dae565b925050600181019050613b0d565b5085935050505092915050565b6000613b5282614d8b565b613b5c8185614dea565b9350613b6783614d65565b8060005b83811015613b98578151613b7f8882613a55565b9750613b8a83614dbb565b925050600181019050613b6b565b5085935050505092915050565b613bae81614f33565b82525050565b613bbd81614f33565b82525050565b613bcc81614f3f565b82525050565b6000613bdd82614d96565b613be78185614dfb565b9350613bf7818560208601614f80565b613c00816150ec565b840191505092915050565b6000613c18602383614dfb565b91507f436f6e747261637420686173206e6f2062616c616e636520746f20776974686460008301527f72617700000000000000000000000000000000000000000000000000000000006020830152604082019050919050565b6000613c7e602383614dfb565b91507f45524332303a207472616e7366657220746f20746865207a65726f206164647260008301527f65737300000000000000000000000000000000000000000000000000000000006020830152604082019050919050565b6000613ce4601483614dfb565b91507f416c726561647920626c61636b206c69737465640000000000000000000000006000830152602082019050919050565b6000613d24602283614dfb565b91507f45524332303a20617070726f766520746f20746865207a65726f20616464726560008301527f73730000000000000000000000000000000000000000000000000000000000006020830152604082019050919050565b6000613d8a601b83614dfb565b91507f53656e642045544820746f2062757920736f6d6520746f6b656e7300000000006000830152602082019050919050565b6000613dca602583614dfb565b91507f46756e6374696f6e73206f6e6c7920617661696c61626c6520666f722061756360008301527f74696f6e730000000000000000000000000000000000000000000000000000006020830152604082019050919050565b6000613e30602f83614dfb565b91507f496e766573746f7273206e6565647320746f20776169742e204974277320746f60008301527f6f206561726c7920746f206275792e00000000000000000000000000000000006020830152604082019050919050565b6000613e96601d83614dfb565b91507f45524332303a20696e73756666696369656e7420616c6c6f77616e63650000006000830152602082019050919050565b6000613ed6602683614dfb565b91507f45524332303a207472616e7366657220616d6f756e742065786365656473206260008301527f616c616e636500000000000000000000000000000000000000000000000000006020830152604082019050919050565b6000613f3c601983614dfb565b91507f546869732061756374696f6e20697320636f6d706c65746564000000000000006000830152602082019050919050565b6000613f7c602783614dfb565b91507f53656e6420726967687420616d6f756e74206f662045544820666f722074686560008301527f20746f6b656e73000000000000000000000000000000000000000000000000006020830152604082019050919050565b6000613fe2601683614dfb565b91507f546869732061756374696f6e2068617320656e646564000000000000000000006000830152602082019050919050565b6000614022601483614dfb565b91507f416c7265616479207768697465206c69737465640000000000000000000000006000830152602082019050919050565b6000614062603683614dfb565b91507f54686520616d6f756e74206f66204554482073656e74206973206c657373207460008301527f68616e20746865207072696365206f6620746f6b656e000000000000000000006020830152604082019050919050565b60006140c8603183614dfb565b91507f46756e64206d616e6167657220686173206e6f7420656e6f75676820746f6b6560008301527f6e7320696e206974732062616c616e63650000000000000000000000000000006020830152604082019050919050565b600061412e602583614dfb565b91507f496e766573746f72206973206e6f7420666f756e6420696e2077616974696e6760008301527f206c6973740000000000000000000000000000000000000000000000000000006020830152604082019050919050565b6000614194603583614dfb565b91507f53656c6c657220686173206e6f7420656e6f75676820746f6b656e732028616e60008301527f796d6f72652920696e206974732062616c616e636500000000000000000000006020830152604082019050919050565b60006141fa602083614dfb565b91507f546f6b656e732070657220696e766573746f72206361702065786365656465646000830152602082019050919050565b600061423a603983614dfb565b91507f496e766573746f7220626f7567687420746f6b656e7320616c72656164792e2060008301527f5761697420756e74696c20796f7572206e657874207475726e000000000000006020830152604082019050919050565b60006142a0603383614dfb565b91507f46756e6374696f6e73206f6e6c7920617661696c61626c6520666f722077616960008301527f74696e67206c697374206d656368616e69736d000000000000000000000000006020830152604082019050919050565b6000614306601983614dfb565b91507f546869732073656c6c696e6720697320636f6d706c65746564000000000000006000830152602082019050919050565b6000614346603383614dfb565b91507f596f7520617265206e6f7420612077686974652d6c697374656420696e76657360008301527f746f72206e6f7220746865206d616e61676572000000000000000000000000006020830152604082019050919050565b60006143ac602583614dfb565b91507f45524332303a207472616e736665722066726f6d20746865207a65726f20616460008301527f64726573730000000000000000000000000000000000000000000000000000006020830152604082019050919050565b6000614412602483614dfb565b91507f45524332303a20617070726f76652066726f6d20746865207a65726f2061646460008301527f72657373000000000000000000000000000000000000000000000000000000006020830152604082019050919050565b6000614478602b83614dfb565b91507f53656c6c657220686173206e6f7420656e6f75676820746f6b656e7320696e2060008301527f6974732062616c616e63650000000000000000000000000000000000000000006020830152604082019050919050565b60006144de602e83614dfb565b91507f496e766573746f7273206e6565647320746f20776169742e204974277320746f60008301527f6f206c61746520746f206275792e0000000000000000000000000000000000006020830152604082019050919050565b6000614544601d83614dfb565b91507f4f6e6c7920616c6c6f77656420666f722066756e64206d616e616765720000006000830152602082019050919050565b6000614584602583614dfb565b91507f45524332303a2064656372656173656420616c6c6f77616e63652062656c6f7760008301527f207a65726f0000000000000000000000000000000000000000000000000000006020830152604082019050919050565b60006145ea601f83614dfb565b91507f45524332303a206d696e7420746f20746865207a65726f2061646472657373006000830152602082019050919050565b60e0820160008201516146336000850182613a6d565b50602082015161464660208501826146ed565b50604082015161465960408501826146ed565b50606082015161466c60608501826146ed565b50608082015161467f60808501826146ed565b5060a082015161469260a08501826146ed565b5060c08201516146a560c0850182613ba5565b50505050565b6060820160008201516146c16000850182613a6d565b5060208201516146d460208501826146ed565b5060408201516146e76040850182613ba5565b50505050565b6146f681614f69565b82525050565b61470581614f69565b82525050565b61471481614f73565b82525050565b600060208201905061472f6000830184613a7c565b92915050565b600060808201905061474a6000830187613a7c565b6147576020830186613a7c565b61476460408301856146fc565b61477160608301846146fc565b95945050505050565b600061016082019050614790600083018e613a7c565b81810360208301526147a2818d613bd2565b905081810360408301526147b6818c613bd2565b90506147c5606083018b6146fc565b6147d2608083018a6146fc565b6147df60a08301896146fc565b6147ec60c08301886146fc565b6147f960e0830187613bb4565b81810361010083015261480c8186613a8b565b90508181036101208301526148218185613ae9565b90508181036101408301526148368184613b47565b90509c9b505050505050505050505050565b600060608201905061485d6000830186613a7c565b61486a60208301856146fc565b6148776040830184613bb4565b949350505050565b600060e082019050614894600083018a613a7c565b6148a160208301896146fc565b6148ae60408301886146fc565b6148bb60608301876146fc565b6148c860808301866146fc565b6148d560a08301856146fc565b6148e260c0830184613bb4565b98975050505050505050565b60006020820190506149036000830184613bb4565b92915050565b600060408201905061491e6000830185613bb4565b61492b60208301846146fc565b9392505050565b60006020820190506149476000830184613bc3565b92915050565b600060208201905081810360008301526149678184613bd2565b905092915050565b6000602082019050818103600083015261498881613c0b565b9050919050565b600060208201905081810360008301526149a881613c71565b9050919050565b600060208201905081810360008301526149c881613cd7565b9050919050565b600060208201905081810360008301526149e881613d17565b9050919050565b60006020820190508181036000830152614a0881613d7d565b9050919050565b60006020820190508181036000830152614a2881613dbd565b9050919050565b60006020820190508181036000830152614a4881613e23565b9050919050565b60006020820190508181036000830152614a6881613e89565b9050919050565b60006020820190508181036000830152614a8881613ec9565b9050919050565b60006020820190508181036000830152614aa881613f2f565b9050919050565b60006020820190508181036000830152614ac881613f6f565b9050919050565b60006020820190508181036000830152614ae881613fd5565b9050919050565b60006020820190508181036000830152614b0881614015565b9050919050565b60006020820190508181036000830152614b2881614055565b9050919050565b60006020820190508181036000830152614b48816140bb565b9050919050565b60006020820190508181036000830152614b6881614121565b9050919050565b60006020820190508181036000830152614b8881614187565b9050919050565b60006020820190508181036000830152614ba8816141ed565b9050919050565b60006020820190508181036000830152614bc88161422d565b9050919050565b60006020820190508181036000830152614be881614293565b9050919050565b60006020820190508181036000830152614c08816142f9565b9050919050565b60006020820190508181036000830152614c2881614339565b9050919050565b60006020820190508181036000830152614c488161439f565b9050919050565b60006020820190508181036000830152614c6881614405565b9050919050565b60006020820190508181036000830152614c888161446b565b9050919050565b60006020820190508181036000830152614ca8816144d1565b9050919050565b60006020820190508181036000830152614cc881614537565b9050919050565b60006020820190508181036000830152614ce881614577565b9050919050565b60006020820190508181036000830152614d08816145dd565b9050919050565b6000602082019050614d2460008301846146fc565b92915050565b6000602082019050614d3f600083018461470b565b92915050565b6000819050602082019050919050565b6000819050602082019050919050565b6000819050602082019050919050565b600081519050919050565b600081519050919050565b600081519050919050565b600081519050919050565b6000602082019050919050565b6000602082019050919050565b6000602082019050919050565b600082825260208201905092915050565b600082825260208201905092915050565b600082825260208201905092915050565b600082825260208201905092915050565b6000614e1782614f69565b9150614e2283614f69565b9250827fffffffffffffffffffffffffffffffffffffffffffffffffffffffffffffffff03821115614e5757614e5661505f565b5b828201905092915050565b6000614e6d82614f69565b9150614e7883614f69565b925082614e8857614e8761508e565b5b828204905092915050565b6000614e9e82614f69565b9150614ea983614f69565b9250817fffffffffffffffffffffffffffffffffffffffffffffffffffffffffffffffff0483118215151615614ee257614ee161505f565b5b828202905092915050565b6000614ef882614f69565b9150614f0383614f69565b925082821015614f1657614f1561505f565b5b828203905092915050565b6000614f2c82614f49565b9050919050565b60008115159050919050565b6000819050919050565b600073ffffffffffffffffffffffffffffffffffffffff82169050919050565b6000819050919050565b600060ff82169050919050565b60005b83811015614f9e578082015181840152602081019050614f83565b83811115614fad576000848401525b50505050565b60006002820490506001821680614fcb57607f821691505b60208210811415614fdf57614fde6150bd565b5b50919050565b6000614ff082614f69565b91507fffffffffffffffffffffffffffffffffffffffffffffffffffffffffffffffff8214156150235761502261505f565b5b600182019050919050565b600061503982614f69565b915061504483614f69565b9250826150545761505361508e565b5b828206905092915050565b7f4e487b7100000000000000000000000000000000000000000000000000000000600052601160045260246000fd5b7f4e487b7100000000000000000000000000000000000000000000000000000000600052601260045260246000fd5b7f4e487b7100000000000000000000000000000000000000000000000000000000600052602260045260246000fd5b6000601f19601f8301169050919050565b61510681614f21565b811461511157600080fd5b50565b61511d81614f69565b811461512857600080fd5b5056fea264697066735822122084f845b4d97c36628898a83a149ba2f39cd1687bf7addf2243daab46a38ae2bc64736f6c63430008000033",
  "immutableReferences": {},
  "source": "// SPDX-License-Identifier: MIT\r\n\r\npragma solidity ^0.8.0;\r\n\r\n/**\r\n * @title Closed-End Fund\r\n * @dev Tun Polat\r\n **/\r\n\r\nimport \"@openzeppelin/contracts/token/ERC20/ERC20.sol\";\r\n\r\ncontract CEFFactory {\r\n    ClosedEndFund[] public deployedCEF;\r\n\r\n    function createCEF(\r\n        string memory _title,\r\n        string memory _description,\r\n        uint256 _tokenPrice,\r\n        uint256 _initialSupply,\r\n        uint256 _tokensPerInvestor,\r\n        bool _isDutchAuction,\r\n        uint256 _timeToBuyInHours,\r\n        address[] memory _whiteListedInvestors\r\n    ) public {\r\n        ClosedEndFund newCEF = new ClosedEndFund(\r\n            msg.sender,\r\n            _title,\r\n            _description,\r\n            _tokenPrice,\r\n            _initialSupply,\r\n            _tokensPerInvestor,\r\n            _isDutchAuction,\r\n            _timeToBuyInHours,\r\n            _whiteListedInvestors\r\n        );\r\n        deployedCEF.push(newCEF);\r\n    }\r\n\r\n    function getDeployedCEF() public view returns (ClosedEndFund[] memory) {\r\n        return deployedCEF;\r\n    }\r\n}\r\n\r\ncontract CEFToken is ERC20 {\r\n    constructor(address _manager, uint256 initialSupply)\r\n        ERC20(\"CEF TOKEN\", \"CEF\")\r\n    {\r\n        _mint(_manager, initialSupply);\r\n    }\r\n}\r\n\r\ncontract ClosedEndFund is CEFToken {\r\n    // *** VARIABLES *** //\r\n    address public manager; // address of the fund manager\r\n    string public title; // name of the fund\r\n    string public description; // description of the fund\r\n    uint256 public tokenPrice; // in WEI\r\n    uint256 public tokensPerInvestor; // tokens that investor can buy at once\r\n    uint256 public timeToBuyInHours; // time slot to buy tokens\r\n    uint256 public startDate; // start date when CA is deployed\r\n    bool public isDutchAuction; // decide whether it's a dutch auction or waiting list mechanism\r\n    address[] public waitingList; // waiting list array with ordered position\r\n\r\n    // *** STRUCT *** //\r\n    struct Auction {\r\n        address seller; // addres of seller\r\n        uint256 amountToSell; // amount of tokens to sell\r\n        uint256 startingPrice; // starting price of auction\r\n        uint256 minimumPrice; // mimimun price of auction\r\n        uint256 startAt; // start date\r\n        uint256 expiresAt; // end date\r\n        bool completed; // true if the auction has already been closed\r\n    }\r\n\r\n    Auction[] public auctions;\r\n\r\n    // used for waiting list mechanism\r\n    struct Selling {\r\n        address seller;\r\n        uint256 amountToSell; // amount of tokens to sell\r\n        bool completed; // true if the auction has already been closed\r\n    }\r\n\r\n    Selling[] public sellings;\r\n\r\n    struct Investor {\r\n        bool whiteListed; // true if white-listed\r\n        uint256 timeLastBoughtTokens; // check for waiting list mechanism if investor bought in the last timeToBuyInHours\r\n    }\r\n\r\n    mapping(address => Investor) public whiteListedInvestors;\r\n\r\n    // *** EVENTS *** //\r\n    event BuyTokens(\r\n        address buyer,\r\n        address seller,\r\n        uint256 amountOfETH,\r\n        uint256 amountOfTokens\r\n    );\r\n    event CapitalCall(uint256 amountOfTokens);\r\n    event SetNewTokenPrice(uint256 newTokenPrice);\r\n    event SetNewTokenCap(uint256 newTokenCap);\r\n    event SetNewTimeToBuyInHours(uint256 newTimeToBuyInHours);\r\n\r\n    // *** MODIFIERS *** //\r\n    function _onlyManager() private view {\r\n        require(msg.sender == manager, \"Only allowed for fund manager\");\r\n    }\r\n\r\n    modifier onlyManager() {\r\n        _onlyManager();\r\n        _;\r\n    }\r\n\r\n    function _isWhiteListed(address _address) private view {\r\n        require(\r\n            whiteListedInvestors[_address].whiteListed ||\r\n                (msg.sender == manager),\r\n            \"You are not a white-listed investor nor the manager\"\r\n        );\r\n    }\r\n\r\n    modifier isWhiteListed(address _address) {\r\n        _isWhiteListed(_address);\r\n        _;\r\n    }\r\n\r\n    function _isAuction() private view {\r\n        require(isDutchAuction, \"Functions only available for auctions\");\r\n    }\r\n\r\n    modifier isAuction() {\r\n        _isAuction();\r\n        _;\r\n    }\r\n\r\n    function _isWaitingList() private view {\r\n        require(\r\n            !isDutchAuction,\r\n            \"Functions only available for waiting list mechanism\"\r\n        );\r\n    }\r\n\r\n    modifier isWaitingList() {\r\n        _isWaitingList();\r\n        _;\r\n    }\r\n\r\n    constructor(\r\n        address _manager,\r\n        string memory _title,\r\n        string memory _description,\r\n        uint256 _tokenPrice,\r\n        uint256 _initialSupply,\r\n        uint256 _tokensPerInvestor,\r\n        bool _isDutchAuction,\r\n        uint256 _timeToBuyInHours,\r\n        address[] memory _whiteListedInvestors\r\n    ) CEFToken(_manager, _initialSupply) {\r\n        manager = _manager;\r\n        title = _title;\r\n        description = _description;\r\n        tokenPrice = _tokenPrice;\r\n        tokensPerInvestor = _tokensPerInvestor;\r\n        isDutchAuction = _isDutchAuction;\r\n        timeToBuyInHours = _timeToBuyInHours;\r\n        startDate = block.timestamp;\r\n        waitingList = _whiteListedInvestors;\r\n\r\n        // add investors to mapping (whitelisting) - O(n) linear algorithm - it's ok if amount of white-listed Investors is small\r\n        for (uint256 i = 0; i < _whiteListedInvestors.length; i++) {\r\n            address whiteListedInvestor = _whiteListedInvestors[i];\r\n            whiteListedInvestors[whiteListedInvestor].whiteListed = true;\r\n        }\r\n    }\r\n\r\n    // *** DUTCH AUCTION *** //\r\n\r\n    // no restriction buying issued tokens\r\n    function buyIssuedAuctionTokensFromManager(uint256 _amountOfTokens)\r\n        public\r\n        payable\r\n        isWhiteListed(msg.sender)\r\n        isAuction\r\n        returns (uint256 tokenAmount)\r\n    {\r\n        require(msg.value > 0, \"Send ETH to buy some tokens\");\r\n        require(\r\n            msg.value == _amountOfTokens * tokenPrice,\r\n            \"Send right amount of ETH for the tokens\"\r\n        );\r\n\r\n        // check manager balance\r\n        uint256 managerBalance = this.balanceOf(manager);\r\n        require(\r\n            managerBalance >= _amountOfTokens,\r\n            \"Fund manager has not enough tokens in its balance\"\r\n        );\r\n\r\n        // Transfer token to the buyer\r\n        _transfer(manager, msg.sender, _amountOfTokens);\r\n\r\n        // emit the event\r\n        emit BuyTokens(msg.sender, manager, msg.value, _amountOfTokens);\r\n\r\n        return _amountOfTokens;\r\n    }\r\n\r\n    function startAuction(\r\n        uint256 _amountToSell,\r\n        uint256 _startingPrice,\r\n        uint256 _minimumPrice,\r\n        uint256 _durationInMinutes\r\n    ) public isWhiteListed(msg.sender) isAuction {\r\n        // check amount of tokens\r\n        uint256 sellerBalance = this.balanceOf(msg.sender);\r\n        require(\r\n            sellerBalance >= _amountToSell,\r\n            \"Seller has not enough tokens in its balance\"\r\n        );\r\n\r\n        // initalize auction\r\n        Auction memory newAuction = Auction({\r\n            seller: msg.sender,\r\n            amountToSell: _amountToSell,\r\n            startingPrice: _startingPrice,\r\n            minimumPrice: _minimumPrice,\r\n            startAt: block.timestamp,\r\n            expiresAt: block.timestamp + _durationInMinutes * 1 minutes,\r\n            completed: false\r\n        });\r\n\r\n        // push to auction array\r\n        auctions.push(newAuction);\r\n    }\r\n\r\n    function getAuctionPrice(uint256 index)\r\n        public\r\n        view\r\n        isAuction\r\n        returns (uint256)\r\n    {\r\n        Auction memory auction = auctions[index]; // access auction\r\n        uint256 priceGap = auction.startingPrice - auction.minimumPrice;\r\n        return\r\n            (\r\n                (auction.startingPrice -\r\n                    ((priceGap * (block.timestamp - auction.startAt)) /\r\n                        (auction.expiresAt - auction.startAt)))\r\n            ) * auction.amountToSell;\r\n    }\r\n\r\n    function buyAuctionToken(uint256 index) external payable isAuction {\r\n        Auction storage auction = auctions[index]; // access auction; storage because need to change variable\r\n\r\n        require(!auction.completed, \"This auction is completed\");\r\n        require(block.timestamp < auction.expiresAt, \"This auction has ended\");\r\n\r\n        uint256 price = getAuctionPrice(index);\r\n        require(\r\n            msg.value >= price,\r\n            \"The amount of ETH sent is less than the price of token\"\r\n        );\r\n\r\n        auction.completed = true; // close auction\r\n\r\n        _transfer(auction.seller, msg.sender, auction.amountToSell); // transfer token (re-entrancy attack danger?) + if balance to enough transfer aborted (no-double spending)\r\n\r\n        uint256 refund = msg.value - price;\r\n        if (refund > 0) {\r\n            payable(msg.sender).transfer(refund); // refund buyer if payed too much\r\n        }\r\n\r\n        payable(auction.seller).transfer(price); // transfer money to seller\r\n    }\r\n\r\n    // *** WAITING LIST MECHANISM *** //\r\n\r\n    function buyIssuedWaitingListTokensFromManager(uint256 _amountOfTokens)\r\n        public\r\n        payable\r\n        isWhiteListed(msg.sender)\r\n        isWaitingList\r\n        returns (uint256 tokenAmount)\r\n    {\r\n        require(msg.value > 0, \"Send ETH to buy some tokens\");\r\n        require(\r\n            msg.value == _amountOfTokens * tokenPrice,\r\n            \"Send right amount of ETH for the tokens\"\r\n        );\r\n        require(\r\n            tokensPerInvestor >= _amountOfTokens,\r\n            \"Tokens per investor cap exceeded\"\r\n        );\r\n\r\n        // check manager balance\r\n        uint256 managerBalance = this.balanceOf(manager);\r\n        require(\r\n            managerBalance >= _amountOfTokens,\r\n            \"Fund manager has not enough tokens in its balance\"\r\n        );\r\n\r\n        // check waiting list position of buyer\r\n        int256 idx = findIndexInArray(msg.sender);\r\n        require(idx >= 0, \"Investor is not found in waiting list\");\r\n\r\n        // check time restriction\r\n        checkTimeRestriction(uint256(idx));\r\n\r\n        // after checks: allow to buy\r\n\r\n        whiteListedInvestors[msg.sender].timeLastBoughtTokens = block.timestamp;\r\n\r\n        // Transfer token to the buyer\r\n        _transfer(manager, msg.sender, _amountOfTokens);\r\n\r\n        // emit the event\r\n        emit BuyTokens(msg.sender, manager, msg.value, _amountOfTokens);\r\n\r\n        return _amountOfTokens;\r\n    }\r\n\r\n    function sellWaitingListToken(uint256 _amountToSell)\r\n        public\r\n        isWhiteListed(msg.sender)\r\n        isWaitingList\r\n    {\r\n        // check amount of tokens\r\n        uint256 sellerBalance = this.balanceOf(msg.sender);\r\n        require(\r\n            sellerBalance >= _amountToSell,\r\n            \"Seller has not enough tokens in its balance\"\r\n        );\r\n\r\n        // initalize selling\r\n        Selling memory newSelling = Selling({\r\n            seller: msg.sender,\r\n            amountToSell: _amountToSell,\r\n            completed: false\r\n        });\r\n\r\n        // push to sellings array\r\n        sellings.push(newSelling);\r\n    }\r\n\r\n    function buyWaitingListToken(uint256 index, uint256 _amountOfTokens)\r\n        public\r\n        payable\r\n        isWhiteListed(msg.sender)\r\n        isWaitingList\r\n        returns (uint256 tokenAmount)\r\n    {\r\n        Selling storage selling = sellings[index]; // access selling; storage because need to change variable\r\n        require(!selling.completed, \"This selling is completed\");\r\n        require(\r\n            tokensPerInvestor >= _amountOfTokens,\r\n            \"Tokens per investor cap exceeded\"\r\n        );\r\n        require(msg.value > 0, \"Send ETH to buy some tokens\");\r\n        require(\r\n            msg.value == _amountOfTokens * tokenPrice,\r\n            \"Send right amount of ETH for the tokens\"\r\n        );\r\n\r\n        // check investors balance\r\n        uint256 sellerBalance = this.balanceOf(selling.seller);\r\n        require(\r\n            sellerBalance >= _amountOfTokens,\r\n            \"Seller has not enough tokens (anymore) in its balance\"\r\n        );\r\n\r\n        // check waiting list position\r\n        int256 idx = findIndexInArray(msg.sender);\r\n        require(idx >= 0, \"Investor is not found in waiting list\");\r\n\r\n        // check time restriction\r\n        checkTimeRestriction(uint256(idx));\r\n\r\n        // after checks: allow to buy\r\n\r\n        // set time of buying for investor\r\n        whiteListedInvestors[msg.sender].timeLastBoughtTokens = block.timestamp;\r\n\r\n        // set completed to true if all tokens are sold\r\n        selling.amountToSell -= _amountOfTokens;\r\n        if (selling.amountToSell <= 0) {\r\n            selling.completed = true;\r\n        }\r\n\r\n        _transfer(selling.seller, msg.sender, _amountOfTokens); // Transfer token to the buyer\r\n\r\n        emit BuyTokens(msg.sender, selling.seller, msg.value, _amountOfTokens); // emit the event\r\n\r\n        payable(selling.seller).transfer(msg.value); // transfer (exact) money to seller\r\n\r\n        return (_amountOfTokens);\r\n    }\r\n\r\n    // *** Corporate Actions *** //\r\n\r\n    // manager can withdraw to invest\r\n    function withdraw() public onlyManager {\r\n        uint256 contractBalance = address(this).balance;\r\n        require(contractBalance > 0, \"Contract has no balance to withdraw\");\r\n        payable(msg.sender).transfer(contractBalance);\r\n    }\r\n\r\n    // add investor to white-list\r\n    function addInvestor(address _addressToWhitelist) public onlyManager {\r\n        require(\r\n            !whiteListedInvestors[_addressToWhitelist].whiteListed,\r\n            \"Already white listed\"\r\n        );\r\n        whiteListedInvestors[_addressToWhitelist].whiteListed = true;\r\n        waitingList.push(_addressToWhitelist);\r\n    }\r\n\r\n    // remove investor from white-list\r\n    function removeInvestor(address _addressToBlacklist) public onlyManager {\r\n        require(\r\n            whiteListedInvestors[_addressToBlacklist].whiteListed,\r\n            \"Already black listed\"\r\n        );\r\n        whiteListedInvestors[_addressToBlacklist].whiteListed = false; // kind of blacklist; not really removed\r\n\r\n        // remove from waiting list in an ordered way\r\n        int256 index = findIndexInArray(_addressToBlacklist);\r\n        require(index >= 0, \"Investor is not found in waiting list\");\r\n        for (uint256 i = uint256(index); i < waitingList.length - 1; i++) {\r\n            waitingList[i] = waitingList[i + 1];\r\n        }\r\n        delete waitingList[waitingList.length - 1];\r\n    }\r\n\r\n    // capital call\r\n    function mintNewTokens(uint256 _amountOfTokens)\r\n        public\r\n        onlyManager\r\n        returns (uint256)\r\n    {\r\n        _mint(manager, _amountOfTokens); // mint new tokens\r\n        emit CapitalCall(_amountOfTokens); // emit the event\r\n        return _amountOfTokens;\r\n    }\r\n\r\n    // set new token price\r\n    function setTokenPrice(uint256 _newTokenPrice)\r\n        public\r\n        onlyManager\r\n        returns (uint256)\r\n    {\r\n        tokenPrice = _newTokenPrice; // set new token price\r\n        emit SetNewTokenPrice(tokenPrice); // emit the event\r\n        return tokenPrice;\r\n    }\r\n\r\n    // set new token per investor\r\n    function setTokenPerInvestor(uint256 _newTokenCap)\r\n        public\r\n        onlyManager\r\n        returns (uint256)\r\n    {\r\n        tokensPerInvestor = _newTokenCap; // set new token price\r\n        emit SetNewTokenCap(tokenPrice); // emit the event\r\n        return tokensPerInvestor;\r\n    }\r\n\r\n    // set new time slot\r\n    function setTimeSlot(uint256 _NewTimeToBuyInHours)\r\n        public\r\n        onlyManager\r\n        returns (uint256)\r\n    {\r\n        timeToBuyInHours = _NewTimeToBuyInHours; // set new token price\r\n        emit SetNewTimeToBuyInHours(timeToBuyInHours); // emit the event\r\n        return timeToBuyInHours;\r\n    }\r\n\r\n    //*** Helper ***//\r\n\r\n    function findIndexInArray(address _investor)\r\n        public\r\n        view\r\n        isWaitingList\r\n        returns (int256)\r\n    {\r\n        for (uint256 i = 0; i < waitingList.length; i++) {\r\n            if (waitingList[i] == _investor) {\r\n                return int256(i);\r\n            }\r\n        }\r\n        return -1;\r\n    }\r\n\r\n    function checkTimeRestriction(uint256 idx) public view isWaitingList {\r\n        uint256 timeEnd = startDate +\r\n            timeToBuyInHours *\r\n            60 *\r\n            60 *\r\n            waitingList.length; // end time of array calculated from startDate (one circle)\r\n\r\n        uint256 timeNow = ((block.timestamp - startDate) %\r\n            (timeEnd - startDate)) + startDate; // time now calculated with modulo\r\n\r\n        uint256 timeToBuyStart = startDate +\r\n            (uint256(idx)) *\r\n            timeToBuyInHours *\r\n            60 *\r\n            60; // time to buy: slot start for investor\r\n\r\n        uint256 timeToBuyEnd = startDate +\r\n            (uint256(idx) + 1) *\r\n            timeToBuyInHours *\r\n            60 *\r\n            60; // time to buy: slot end for investor\r\n\r\n        // check if investor bought in the last x hours\r\n        require(\r\n            !(whiteListedInvestors[msg.sender].timeLastBoughtTokens >\r\n                block.timestamp - timeToBuyInHours * 60 * 60),\r\n            \"Investor bought tokens already. Wait until your next turn\"\r\n        );\r\n\r\n        // if investor still needs to wait\r\n        require(\r\n            !(timeToBuyStart > timeNow),\r\n            \"Investors needs to wait. It's too early to buy.\"\r\n        );\r\n\r\n        // if investor is too late\r\n        require(\r\n            !(timeNow > timeToBuyEnd),\r\n            \"Investors needs to wait. It's too late to buy.\"\r\n        );\r\n    }\r\n\r\n    function getSummary()\r\n        public\r\n        view\r\n        returns (\r\n            address,\r\n            string memory,\r\n            string memory,\r\n            uint256,\r\n            uint256,\r\n            uint256,\r\n            uint256,\r\n            bool,\r\n            address[] memory,\r\n            Auction[] memory,\r\n            Selling[] memory\r\n        )\r\n    {\r\n        return (\r\n            manager,\r\n            title,\r\n            description,\r\n            tokenPrice,\r\n            tokensPerInvestor,\r\n            timeToBuyInHours,\r\n            startDate,\r\n            isDutchAuction,\r\n            waitingList, // incl. white-listed investors\r\n            auctions,\r\n            sellings\r\n        );\r\n    }\r\n\r\n    //*** ERC20 OVERRIDE ***//\r\n\r\n    // override to avoid transfering shares outside of fund\r\n    function transfer(address _recipient, uint256 _amount)\r\n        public\r\n        override\r\n        onlyManager\r\n        returns (bool)\r\n    {\r\n        _transfer(msg.sender, _recipient, _amount);\r\n        return true;\r\n    }\r\n\r\n    function approve(address spender, uint256 amount)\r\n        public\r\n        override\r\n        onlyManager\r\n        returns (bool)\r\n    {\r\n        _approve(msg.sender, spender, amount);\r\n        return true;\r\n    }\r\n}\r\n",
  "sourcePath": "C:\\Users\\tunc-\\Desktop\\uni\\02_FS22\\blockchain-challenge\\cef-marketplace\\contracts\\ClosedEndFund.sol",
  "compiler": {
    "name": "solc",
    "version": "0.8.0+commit.c7dfd78e.Emscripten.clang"
  },
  "schemaVersion": "3.4.7",
  "updatedAt": "2022-05-05T19:15:29.871Z",
  "devdoc": {
    "kind": "dev",
    "methods": {
      "allowance(address,address)": {
        "details": "See {IERC20-allowance}."
      },
      "approve(address,uint256)": {
        "details": "See {IERC20-approve}. NOTE: If `amount` is the maximum `uint256`, the allowance is not updated on `transferFrom`. This is semantically equivalent to an infinite approval. Requirements: - `spender` cannot be the zero address."
      },
      "balanceOf(address)": {
        "details": "See {IERC20-balanceOf}."
      },
      "decimals()": {
        "details": "Returns the number of decimals used to get its user representation. For example, if `decimals` equals `2`, a balance of `505` tokens should be displayed to a user as `5.05` (`505 / 10 ** 2`). Tokens usually opt for a value of 18, imitating the relationship between Ether and Wei. This is the value {ERC20} uses, unless this function is overridden; NOTE: This information is only used for _display_ purposes: it in no way affects any of the arithmetic of the contract, including {IERC20-balanceOf} and {IERC20-transfer}."
      },
      "decreaseAllowance(address,uint256)": {
        "details": "Atomically decreases the allowance granted to `spender` by the caller. This is an alternative to {approve} that can be used as a mitigation for problems described in {IERC20-approve}. Emits an {Approval} event indicating the updated allowance. Requirements: - `spender` cannot be the zero address. - `spender` must have allowance for the caller of at least `subtractedValue`."
      },
      "increaseAllowance(address,uint256)": {
        "details": "Atomically increases the allowance granted to `spender` by the caller. This is an alternative to {approve} that can be used as a mitigation for problems described in {IERC20-approve}. Emits an {Approval} event indicating the updated allowance. Requirements: - `spender` cannot be the zero address."
      },
      "name()": {
        "details": "Returns the name of the token."
      },
      "symbol()": {
        "details": "Returns the symbol of the token, usually a shorter version of the name."
      },
      "totalSupply()": {
        "details": "See {IERC20-totalSupply}."
      },
      "transferFrom(address,address,uint256)": {
        "details": "See {IERC20-transferFrom}. Emits an {Approval} event indicating the updated allowance. This is not required by the EIP. See the note at the beginning of {ERC20}. NOTE: Does not update the allowance if the current allowance is the maximum `uint256`. Requirements: - `from` and `to` cannot be the zero address. - `from` must have a balance of at least `amount`. - the caller must have allowance for ``from``'s tokens of at least `amount`."
      }
    },
    "version": 1
  },
  "userdoc": {
    "kind": "user",
    "methods": {},
    "version": 1
  }
}