{
  "contractName": "ClosedEndFund",
  "abi": [
    {
      "inputs": [
        {
          "internalType": "address",
          "name": "_manager",
          "type": "address"
        },
        {
          "internalType": "string",
          "name": "_title",
          "type": "string"
        },
        {
          "internalType": "string",
          "name": "_description",
          "type": "string"
        },
        {
          "internalType": "uint256",
          "name": "_tokenPrice",
          "type": "uint256"
        },
        {
          "internalType": "uint256",
          "name": "_initialSupply",
          "type": "uint256"
        },
        {
          "internalType": "uint256",
          "name": "_tokensPerInvestor",
          "type": "uint256"
        },
        {
          "internalType": "bool",
          "name": "_isDutchAuction",
          "type": "bool"
        },
        {
          "internalType": "uint256",
          "name": "_timeToBuyInHours",
          "type": "uint256"
        },
        {
          "internalType": "address[]",
          "name": "_whiteListedInvestors",
          "type": "address[]"
        }
      ],
      "stateMutability": "nonpayable",
      "type": "constructor"
    },
    {
      "anonymous": false,
      "inputs": [
        {
          "indexed": true,
          "internalType": "address",
          "name": "owner",
          "type": "address"
        },
        {
          "indexed": true,
          "internalType": "address",
          "name": "spender",
          "type": "address"
        },
        {
          "indexed": false,
          "internalType": "uint256",
          "name": "value",
          "type": "uint256"
        }
      ],
      "name": "Approval",
      "type": "event"
    },
    {
      "anonymous": false,
      "inputs": [
        {
          "indexed": false,
          "internalType": "address",
          "name": "buyer",
          "type": "address"
        },
        {
          "indexed": false,
          "internalType": "address",
          "name": "seller",
          "type": "address"
        },
        {
          "indexed": false,
          "internalType": "uint256",
          "name": "amountOfETH",
          "type": "uint256"
        },
        {
          "indexed": false,
          "internalType": "uint256",
          "name": "amountOfTokens",
          "type": "uint256"
        }
      ],
      "name": "BuyTokens",
      "type": "event"
    },
    {
      "anonymous": false,
      "inputs": [
        {
          "indexed": false,
          "internalType": "uint256",
          "name": "amountOfTokens",
          "type": "uint256"
        }
      ],
      "name": "CapitalCall",
      "type": "event"
    },
    {
      "anonymous": false,
      "inputs": [
        {
          "indexed": false,
          "internalType": "uint256",
          "name": "newTokenCap",
          "type": "uint256"
        }
      ],
      "name": "SetNewTokenCap",
      "type": "event"
    },
    {
      "anonymous": false,
      "inputs": [
        {
          "indexed": false,
          "internalType": "uint256",
          "name": "newTokenPrice",
          "type": "uint256"
        }
      ],
      "name": "SetNewTokenPrice",
      "type": "event"
    },
    {
      "anonymous": false,
      "inputs": [
        {
          "indexed": true,
          "internalType": "address",
          "name": "from",
          "type": "address"
        },
        {
          "indexed": true,
          "internalType": "address",
          "name": "to",
          "type": "address"
        },
        {
          "indexed": false,
          "internalType": "uint256",
          "name": "value",
          "type": "uint256"
        }
      ],
      "name": "Transfer",
      "type": "event"
    },
    {
      "inputs": [
        {
          "internalType": "address",
          "name": "owner",
          "type": "address"
        },
        {
          "internalType": "address",
          "name": "spender",
          "type": "address"
        }
      ],
      "name": "allowance",
      "outputs": [
        {
          "internalType": "uint256",
          "name": "",
          "type": "uint256"
        }
      ],
      "stateMutability": "view",
      "type": "function"
    },
    {
      "inputs": [
        {
          "internalType": "uint256",
          "name": "",
          "type": "uint256"
        }
      ],
      "name": "auctions",
      "outputs": [
        {
          "internalType": "address",
          "name": "seller",
          "type": "address"
        },
        {
          "internalType": "uint256",
          "name": "amountToSell",
          "type": "uint256"
        },
        {
          "internalType": "uint256",
          "name": "startingPrice",
          "type": "uint256"
        },
        {
          "internalType": "uint256",
          "name": "minimumPrice",
          "type": "uint256"
        },
        {
          "internalType": "uint256",
          "name": "startAt",
          "type": "uint256"
        },
        {
          "internalType": "uint256",
          "name": "expiresAt",
          "type": "uint256"
        },
        {
          "internalType": "bool",
          "name": "completed",
          "type": "bool"
        }
      ],
      "stateMutability": "view",
      "type": "function"
    },
    {
      "inputs": [
        {
          "internalType": "address",
          "name": "account",
          "type": "address"
        }
      ],
      "name": "balanceOf",
      "outputs": [
        {
          "internalType": "uint256",
          "name": "",
          "type": "uint256"
        }
      ],
      "stateMutability": "view",
      "type": "function"
    },
    {
      "inputs": [],
      "name": "decimals",
      "outputs": [
        {
          "internalType": "uint8",
          "name": "",
          "type": "uint8"
        }
      ],
      "stateMutability": "view",
      "type": "function"
    },
    {
      "inputs": [
        {
          "internalType": "address",
          "name": "spender",
          "type": "address"
        },
        {
          "internalType": "uint256",
          "name": "subtractedValue",
          "type": "uint256"
        }
      ],
      "name": "decreaseAllowance",
      "outputs": [
        {
          "internalType": "bool",
          "name": "",
          "type": "bool"
        }
      ],
      "stateMutability": "nonpayable",
      "type": "function"
    },
    {
      "inputs": [],
      "name": "description",
      "outputs": [
        {
          "internalType": "string",
          "name": "",
          "type": "string"
        }
      ],
      "stateMutability": "view",
      "type": "function"
    },
    {
      "inputs": [
        {
          "internalType": "address",
          "name": "spender",
          "type": "address"
        },
        {
          "internalType": "uint256",
          "name": "addedValue",
          "type": "uint256"
        }
      ],
      "name": "increaseAllowance",
      "outputs": [
        {
          "internalType": "bool",
          "name": "",
          "type": "bool"
        }
      ],
      "stateMutability": "nonpayable",
      "type": "function"
    },
    {
      "inputs": [],
      "name": "isDutchAuction",
      "outputs": [
        {
          "internalType": "bool",
          "name": "",
          "type": "bool"
        }
      ],
      "stateMutability": "view",
      "type": "function"
    },
    {
      "inputs": [],
      "name": "manager",
      "outputs": [
        {
          "internalType": "address",
          "name": "",
          "type": "address"
        }
      ],
      "stateMutability": "view",
      "type": "function"
    },
    {
      "inputs": [],
      "name": "name",
      "outputs": [
        {
          "internalType": "string",
          "name": "",
          "type": "string"
        }
      ],
      "stateMutability": "view",
      "type": "function"
    },
    {
      "inputs": [
        {
          "internalType": "uint256",
          "name": "",
          "type": "uint256"
        }
      ],
      "name": "sellings",
      "outputs": [
        {
          "internalType": "address",
          "name": "seller",
          "type": "address"
        },
        {
          "internalType": "uint256",
          "name": "amountToSell",
          "type": "uint256"
        },
        {
          "internalType": "bool",
          "name": "completed",
          "type": "bool"
        }
      ],
      "stateMutability": "view",
      "type": "function"
    },
    {
      "inputs": [],
      "name": "startDate",
      "outputs": [
        {
          "internalType": "uint256",
          "name": "",
          "type": "uint256"
        }
      ],
      "stateMutability": "view",
      "type": "function"
    },
    {
      "inputs": [],
      "name": "symbol",
      "outputs": [
        {
          "internalType": "string",
          "name": "",
          "type": "string"
        }
      ],
      "stateMutability": "view",
      "type": "function"
    },
    {
      "inputs": [],
      "name": "timeToBuyInHours",
      "outputs": [
        {
          "internalType": "uint256",
          "name": "",
          "type": "uint256"
        }
      ],
      "stateMutability": "view",
      "type": "function"
    },
    {
      "inputs": [],
      "name": "title",
      "outputs": [
        {
          "internalType": "string",
          "name": "",
          "type": "string"
        }
      ],
      "stateMutability": "view",
      "type": "function"
    },
    {
      "inputs": [],
      "name": "tokenPrice",
      "outputs": [
        {
          "internalType": "uint256",
          "name": "",
          "type": "uint256"
        }
      ],
      "stateMutability": "view",
      "type": "function"
    },
    {
      "inputs": [],
      "name": "tokensPerInvestor",
      "outputs": [
        {
          "internalType": "uint256",
          "name": "",
          "type": "uint256"
        }
      ],
      "stateMutability": "view",
      "type": "function"
    },
    {
      "inputs": [],
      "name": "totalSupply",
      "outputs": [
        {
          "internalType": "uint256",
          "name": "",
          "type": "uint256"
        }
      ],
      "stateMutability": "view",
      "type": "function"
    },
    {
      "inputs": [
        {
          "internalType": "address",
          "name": "from",
          "type": "address"
        },
        {
          "internalType": "address",
          "name": "to",
          "type": "address"
        },
        {
          "internalType": "uint256",
          "name": "amount",
          "type": "uint256"
        }
      ],
      "name": "transferFrom",
      "outputs": [
        {
          "internalType": "bool",
          "name": "",
          "type": "bool"
        }
      ],
      "stateMutability": "nonpayable",
      "type": "function"
    },
    {
      "inputs": [
        {
          "internalType": "uint256",
          "name": "",
          "type": "uint256"
        }
      ],
      "name": "waitingList",
      "outputs": [
        {
          "internalType": "address",
          "name": "",
          "type": "address"
        }
      ],
      "stateMutability": "view",
      "type": "function"
    },
    {
      "inputs": [
        {
          "internalType": "address",
          "name": "",
          "type": "address"
        }
      ],
      "name": "whiteListedInvestors",
      "outputs": [
        {
          "internalType": "bool",
          "name": "whiteListed",
          "type": "bool"
        },
        {
          "internalType": "uint256",
          "name": "timeLastBoughtTokens",
          "type": "uint256"
        }
      ],
      "stateMutability": "view",
      "type": "function"
    },
    {
      "inputs": [
        {
          "internalType": "uint256",
          "name": "_amountOfTokens",
          "type": "uint256"
        }
      ],
      "name": "buyIssuedAuctionTokensFromManager",
      "outputs": [
        {
          "internalType": "uint256",
          "name": "tokenAmount",
          "type": "uint256"
        }
      ],
      "stateMutability": "payable",
      "type": "function"
    },
    {
      "inputs": [
        {
          "internalType": "uint256",
          "name": "_amountToSell",
          "type": "uint256"
        },
        {
          "internalType": "uint256",
          "name": "_startingPrice",
          "type": "uint256"
        },
        {
          "internalType": "uint256",
          "name": "_minimumPrice",
          "type": "uint256"
        },
        {
          "internalType": "uint256",
          "name": "_durationInMinutes",
          "type": "uint256"
        }
      ],
      "name": "startAuction",
      "outputs": [],
      "stateMutability": "nonpayable",
      "type": "function"
    },
    {
      "inputs": [
        {
          "internalType": "uint256",
          "name": "index",
          "type": "uint256"
        }
      ],
      "name": "getAuctionPrice",
      "outputs": [
        {
          "internalType": "uint256",
          "name": "",
          "type": "uint256"
        }
      ],
      "stateMutability": "view",
      "type": "function"
    },
    {
      "inputs": [
        {
          "internalType": "uint256",
          "name": "index",
          "type": "uint256"
        }
      ],
      "name": "buyAuctionToken",
      "outputs": [],
      "stateMutability": "payable",
      "type": "function"
    },
    {
      "inputs": [
        {
          "internalType": "uint256",
          "name": "_amountOfTokens",
          "type": "uint256"
        }
      ],
      "name": "buyIssuedWaitingListTokensFromManager",
      "outputs": [
        {
          "internalType": "uint256",
          "name": "tokenAmount",
          "type": "uint256"
        }
      ],
      "stateMutability": "payable",
      "type": "function"
    },
    {
      "inputs": [
        {
          "internalType": "uint256",
          "name": "_amountToSell",
          "type": "uint256"
        }
      ],
      "name": "sellWaitingListToken",
      "outputs": [],
      "stateMutability": "nonpayable",
      "type": "function"
    },
    {
      "inputs": [
        {
          "internalType": "uint256",
          "name": "index",
          "type": "uint256"
        },
        {
          "internalType": "uint256",
          "name": "_amountOfTokens",
          "type": "uint256"
        }
      ],
      "name": "buyWaitingListToken",
      "outputs": [
        {
          "internalType": "uint256",
          "name": "tokenAmount",
          "type": "uint256"
        }
      ],
      "stateMutability": "payable",
      "type": "function"
    },
    {
      "inputs": [],
      "name": "withdraw",
      "outputs": [],
      "stateMutability": "nonpayable",
      "type": "function"
    },
    {
      "inputs": [
        {
          "internalType": "address",
          "name": "_addressToWhitelist",
          "type": "address"
        }
      ],
      "name": "addInvestor",
      "outputs": [],
      "stateMutability": "nonpayable",
      "type": "function"
    },
    {
      "inputs": [
        {
          "internalType": "address",
          "name": "_addressToBlacklist",
          "type": "address"
        }
      ],
      "name": "removeInvestor",
      "outputs": [],
      "stateMutability": "nonpayable",
      "type": "function"
    },
    {
      "inputs": [
        {
          "internalType": "uint256",
          "name": "_amountOfTokens",
          "type": "uint256"
        }
      ],
      "name": "mintNewTokens",
      "outputs": [
        {
          "internalType": "uint256",
          "name": "",
          "type": "uint256"
        }
      ],
      "stateMutability": "nonpayable",
      "type": "function"
    },
    {
      "inputs": [
        {
          "internalType": "uint256",
          "name": "_newTokenPrice",
          "type": "uint256"
        }
      ],
      "name": "setTokenPrice",
      "outputs": [
        {
          "internalType": "uint256",
          "name": "",
          "type": "uint256"
        }
      ],
      "stateMutability": "nonpayable",
      "type": "function"
    },
    {
      "inputs": [
        {
          "internalType": "uint256",
          "name": "_newTokenCap",
          "type": "uint256"
        }
      ],
      "name": "setTokenPerInvestor",
      "outputs": [
        {
          "internalType": "uint256",
          "name": "",
          "type": "uint256"
        }
      ],
      "stateMutability": "nonpayable",
      "type": "function"
    },
    {
      "inputs": [
        {
          "internalType": "address",
          "name": "_recipient",
          "type": "address"
        },
        {
          "internalType": "uint256",
          "name": "_amount",
          "type": "uint256"
        }
      ],
      "name": "transfer",
      "outputs": [
        {
          "internalType": "bool",
          "name": "",
          "type": "bool"
        }
      ],
      "stateMutability": "nonpayable",
      "type": "function"
    },
    {
      "inputs": [
        {
          "internalType": "address",
          "name": "spender",
          "type": "address"
        },
        {
          "internalType": "uint256",
          "name": "amount",
          "type": "uint256"
        }
      ],
      "name": "approve",
      "outputs": [
        {
          "internalType": "bool",
          "name": "",
          "type": "bool"
        }
      ],
      "stateMutability": "nonpayable",
      "type": "function"
    },
    {
      "inputs": [
        {
          "internalType": "address",
          "name": "_investor",
          "type": "address"
        }
      ],
      "name": "findIndexInArray",
      "outputs": [
        {
          "internalType": "int256",
          "name": "",
          "type": "int256"
        }
      ],
      "stateMutability": "view",
      "type": "function"
    },
    {
      "inputs": [
        {
          "internalType": "uint256",
          "name": "idx",
          "type": "uint256"
        }
      ],
      "name": "checkTimeRestriction",
      "outputs": [],
      "stateMutability": "view",
      "type": "function"
    },
    {
      "inputs": [],
      "name": "getSummary",
      "outputs": [
        {
          "internalType": "address",
          "name": "",
          "type": "address"
        },
        {
          "internalType": "string",
          "name": "",
          "type": "string"
        },
        {
          "internalType": "string",
          "name": "",
          "type": "string"
        },
        {
          "internalType": "uint256",
          "name": "",
          "type": "uint256"
        },
        {
          "internalType": "uint256",
          "name": "",
          "type": "uint256"
        },
        {
          "internalType": "uint256",
          "name": "",
          "type": "uint256"
        },
        {
          "internalType": "uint256",
          "name": "",
          "type": "uint256"
        },
        {
          "internalType": "bool",
          "name": "",
          "type": "bool"
        },
        {
          "internalType": "address[]",
          "name": "",
          "type": "address[]"
        },
        {
          "components": [
            {
              "internalType": "address",
              "name": "seller",
              "type": "address"
            },
            {
              "internalType": "uint256",
              "name": "amountToSell",
              "type": "uint256"
            },
            {
              "internalType": "uint256",
              "name": "startingPrice",
              "type": "uint256"
            },
            {
              "internalType": "uint256",
              "name": "minimumPrice",
              "type": "uint256"
            },
            {
              "internalType": "uint256",
              "name": "startAt",
              "type": "uint256"
            },
            {
              "internalType": "uint256",
              "name": "expiresAt",
              "type": "uint256"
            },
            {
              "internalType": "bool",
              "name": "completed",
              "type": "bool"
            }
          ],
          "internalType": "struct ClosedEndFund.Auction[]",
          "name": "",
          "type": "tuple[]"
        },
        {
          "components": [
            {
              "internalType": "address",
              "name": "seller",
              "type": "address"
            },
            {
              "internalType": "uint256",
              "name": "amountToSell",
              "type": "uint256"
            },
            {
              "internalType": "bool",
              "name": "completed",
              "type": "bool"
            }
          ],
          "internalType": "struct ClosedEndFund.Selling[]",
          "name": "",
          "type": "tuple[]"
        }
      ],
      "stateMutability": "view",
      "type": "function"
    }
  ],
  "bytecode": "0x60806040523480156200001157600080fd5b5060405162005bfd38038062005bfd83398181016040528101906200003791906200069f565b88856040518060400160405280600981526020017f43454620544f4b454e00000000000000000000000000000000000000000000008152506040518060400160405280600381526020017f43454600000000000000000000000000000000000000000000000000000000008152508160039080519060200190620000bd92919062000407565b508060049080519060200190620000d692919062000407565b505050620000eb82826200028460201b60201c565b505088600560006101000a81548173ffffffffffffffffffffffffffffffffffffffff021916908373ffffffffffffffffffffffffffffffffffffffff16021790555087600690805190602001906200014692919062000407565b5086600790805190602001906200015f92919062000407565b50856008819055508360098190555082600c60006101000a81548160ff02191690831515021790555081600a8190555042600b8190555080600d9080519060200190620001ae92919062000498565b5060005b815181101562000274576000828281518110620001f8577f4e487b7100000000000000000000000000000000000000000000000000000000600052603260045260246000fd5b602002602001015190506001601060008373ffffffffffffffffffffffffffffffffffffffff1673ffffffffffffffffffffffffffffffffffffffff16815260200190815260200160002060000160006101000a81548160ff0219169083151502179055505080806200026b9062000a0f565b915050620001b2565b5050505050505050505062000b38565b600073ffffffffffffffffffffffffffffffffffffffff168273ffffffffffffffffffffffffffffffffffffffff161415620002f7576040517f08c379a0000000000000000000000000000000000000000000000000000000008152600401620002ee9062000816565b60405180910390fd5b6200030b60008383620003fd60201b60201c565b80600260008282546200031f9190620008fc565b92505081905550806000808473ffffffffffffffffffffffffffffffffffffffff1673ffffffffffffffffffffffffffffffffffffffff1681526020019081526020016000206000828254620003769190620008fc565b925050819055508173ffffffffffffffffffffffffffffffffffffffff16600073ffffffffffffffffffffffffffffffffffffffff167fddf252ad1be2c89b69c2b068fc378daa952ba7f163c4a11628f55a4df523b3ef83604051620003dd919062000838565b60405180910390a3620003f9600083836200040260201b60201c565b5050565b505050565b505050565b8280546200041590620009d9565b90600052602060002090601f01602090048101928262000439576000855562000485565b82601f106200045457805160ff191683800117855562000485565b8280016001018555821562000485579182015b828111156200048457825182559160200191906001019062000467565b5b50905062000494919062000527565b5090565b82805482825590600052602060002090810192821562000514579160200282015b82811115620005135782518260006101000a81548173ffffffffffffffffffffffffffffffffffffffff021916908373ffffffffffffffffffffffffffffffffffffffff16021790555091602001919060010190620004b9565b5b50905062000523919062000527565b5090565b5b808211156200054257600081600090555060010162000528565b5090565b60006200055d620005578462000889565b62000855565b905080838252602082019050828560208602820111156200057d57600080fd5b60005b85811015620005b1578162000596888262000600565b84526020840193506020830192505060018101905062000580565b5050509392505050565b6000620005d2620005cc84620008b8565b62000855565b905082815260208101848484011115620005eb57600080fd5b620005f8848285620009a3565b509392505050565b600081519050620006118162000aea565b92915050565b600082601f8301126200062957600080fd5b81516200063b84826020860162000546565b91505092915050565b600081519050620006558162000b04565b92915050565b600082601f8301126200066d57600080fd5b81516200067f848260208601620005bb565b91505092915050565b600081519050620006998162000b1e565b92915050565b60008060008060008060008060006101208a8c031215620006bf57600080fd5b6000620006cf8c828d0162000600565b99505060208a015167ffffffffffffffff811115620006ed57600080fd5b620006fb8c828d016200065b565b98505060408a015167ffffffffffffffff8111156200071957600080fd5b620007278c828d016200065b565b97505060606200073a8c828d0162000688565b96505060806200074d8c828d0162000688565b95505060a0620007608c828d0162000688565b94505060c0620007738c828d0162000644565b93505060e0620007868c828d0162000688565b9250506101008a015167ffffffffffffffff811115620007a557600080fd5b620007b38c828d0162000617565b9150509295985092959850929598565b6000620007d2601f83620008eb565b91507f45524332303a206d696e7420746f20746865207a65726f2061646472657373006000830152602082019050919050565b620008108162000999565b82525050565b600060208201905081810360008301526200083181620007c3565b9050919050565b60006020820190506200084f600083018462000805565b92915050565b6000604051905081810181811067ffffffffffffffff821117156200087f576200087e62000abb565b5b8060405250919050565b600067ffffffffffffffff821115620008a757620008a662000abb565b5b602082029050602081019050919050565b600067ffffffffffffffff821115620008d657620008d562000abb565b5b601f19601f8301169050602081019050919050565b600082825260208201905092915050565b6000620009098262000999565b9150620009168362000999565b9250827fffffffffffffffffffffffffffffffffffffffffffffffffffffffffffffffff038211156200094e576200094d62000a5d565b5b828201905092915050565b6000620009668262000979565b9050919050565b60008115159050919050565b600073ffffffffffffffffffffffffffffffffffffffff82169050919050565b6000819050919050565b60005b83811015620009c3578082015181840152602081019050620009a6565b83811115620009d3576000848401525b50505050565b60006002820490506001821680620009f257607f821691505b6020821081141562000a095762000a0862000a8c565b5b50919050565b600062000a1c8262000999565b91507fffffffffffffffffffffffffffffffffffffffffffffffffffffffffffffffff82141562000a525762000a5162000a5d565b5b600182019050919050565b7f4e487b7100000000000000000000000000000000000000000000000000000000600052601160045260246000fd5b7f4e487b7100000000000000000000000000000000000000000000000000000000600052602260045260246000fd5b7f4e487b7100000000000000000000000000000000000000000000000000000000600052604160045260246000fd5b62000af58162000959565b811462000b0157600080fd5b50565b62000b0f816200096d565b811462000b1b57600080fd5b50565b62000b298162000999565b811462000b3557600080fd5b50565b6150b58062000b486000396000f3fe60806040526004361061022f5760003560e01c8063571a26a01161012e57806395d89b41116100ab578063b499e6c61161006f578063b499e6c6146108df578063dd62ed3e1461090a578063e1ba2a2714610947578063e641bde114610970578063e7a20f3f146109995761022f565b806395d89b41146107cb5780639ce4330a146107f6578063a457c2d714610826578063a9059cbb14610863578063b4991743146108a05761022f565b80637284e416116100f25780637284e416146106df5780637ff9b5961461070a5780638d2c448814610735578063917d009e1461075e57806394831bde1461079b5761022f565b8063571a26a0146105a75780636678f7a0146105ea57806369a88504146106285780636a61e5fc1461066557806370a08231146106a25761022f565b8063313ce567116101bc5780634051ddac116101805780634051ddac146104c357806342714978146104f8578063481c6a75146105215780634a79d50c1461054c5780635247638c146105775761022f565b8063313ce567146103de57806337e7b4b514610409578063395093511461043257806339db09e71461046f5780633ccfd60b146104ac5761022f565b806318160ddd1161020357806318160ddd146102e357806323b872dd1461030e57806324407f7c1461034b578063269ad71814610376578063310c6226146103a15761022f565b8062bcbd251461023457806306fdde0314610250578063095ea7b31461027b5780630b97bc86146102b8575b600080fd5b61024e60048036038101906102499190613888565b6109d6565b005b34801561025c57600080fd5b50610265610c34565b60405161027291906148a1565b60405180910390f35b34801561028757600080fd5b506102a2600480360381019061029d919061384c565b610cc6565b6040516102af9190614842565b60405180910390f35b3480156102c457600080fd5b506102cd610ce5565b6040516102da9190614c63565b60405180910390f35b3480156102ef57600080fd5b506102f8610ceb565b6040516103059190614c63565b60405180910390f35b34801561031a57600080fd5b50610335600480360381019061033091906137fd565b610cf5565b6040516103429190614842565b60405180910390f35b34801561035757600080fd5b50610360610d24565b60405161036d9190614c63565b60405180910390f35b34801561038257600080fd5b5061038b610d2a565b6040516103989190614c63565b60405180910390f35b3480156103ad57600080fd5b506103c860048036038101906103c39190613888565b610d30565b6040516103d59190614c63565b60405180910390f35b3480156103ea57600080fd5b506103f3610da5565b6040516104009190614c7e565b60405180910390f35b34801561041557600080fd5b50610430600480360381019061042b9190613888565b610dae565b005b34801561043e57600080fd5b506104596004803603810190610454919061384c565b610fd6565b6040516104669190614842565b60405180910390f35b34801561047b57600080fd5b5061049660048036038101906104919190613798565b611080565b6040516104a39190614886565b60405180910390f35b3480156104b857600080fd5b506104c1611178565b005b3480156104cf57600080fd5b506104d8611212565b6040516104ef9b9a999897969594939291906146ce565b60405180910390f35b34801561050457600080fd5b5061051f600480360381019061051a9190613798565b611600565b005b34801561052d57600080fd5b506105366118e5565b604051610543919061466e565b60405180910390f35b34801561055857600080fd5b5061056161190b565b60405161056e91906148a1565b60405180910390f35b610591600480360381019061058c9190613888565b611999565b60405161059e9190614c63565b60405180910390f35b3480156105b357600080fd5b506105ce60048036038101906105c99190613888565b611cad565b6040516105e197969594939291906147d3565b60405180910390f35b3480156105f657600080fd5b50610611600480360381019061060c9190613798565b611d2c565b60405161061f92919061485d565b60405180910390f35b34801561063457600080fd5b5061064f600480360381019061064a9190613888565b611d5d565b60405161065c9190614c63565b60405180910390f35b34801561067157600080fd5b5061068c60048036038101906106879190613888565b611da9565b6040516106999190614c63565b60405180910390f35b3480156106ae57600080fd5b506106c960048036038101906106c49190613798565b611df5565b6040516106d69190614c63565b60405180910390f35b3480156106eb57600080fd5b506106f4611e3d565b60405161070191906148a1565b60405180910390f35b34801561071657600080fd5b5061071f611ecb565b60405161072c9190614c63565b60405180910390f35b34801561074157600080fd5b5061075c60048036038101906107579190613916565b611ed1565b005b34801561076a57600080fd5b5061078560048036038101906107809190613888565b6120ea565b6040516107929190614c63565b60405180910390f35b6107b560048036038101906107b09190613888565b612266565b6040516107c29190614c63565b60405180910390f35b3480156107d757600080fd5b506107e0612493565b6040516107ed91906148a1565b60405180910390f35b610810600480360381019061080b91906138da565b612525565b60405161081d9190614c63565b60405180910390f35b34801561083257600080fd5b5061084d6004803603810190610848919061384c565b61298f565b60405161085a9190614842565b60405180910390f35b34801561086f57600080fd5b5061088a6004803603810190610885919061384c565b612a79565b6040516108979190614842565b60405180910390f35b3480156108ac57600080fd5b506108c760048036038101906108c29190613888565b612a98565b6040516108d69392919061479c565b60405180910390f35b3480156108eb57600080fd5b506108f4612aff565b6040516109019190614842565b60405180910390f35b34801561091657600080fd5b50610931600480360381019061092c91906137c1565b612b12565b60405161093e9190614c63565b60405180910390f35b34801561095357600080fd5b5061096e60048036038101906109699190613888565b612b99565b005b34801561097c57600080fd5b5061099760048036038101906109929190613798565b612d58565b005b3480156109a557600080fd5b506109c060048036038101906109bb9190613888565b612eb1565b6040516109cd919061466e565b60405180910390f35b6109de612ef0565b6000600e8281548110610a1a577f4e487b7100000000000000000000000000000000000000000000000000000000600052603260045260246000fd5b906000526020600020906007020190508060060160009054906101000a900460ff1615610a7c576040517f08c379a0000000000000000000000000000000000000000000000000000000008152600401610a73906149e3565b60405180910390fd5b80600501544210610ac2576040517f08c379a0000000000000000000000000000000000000000000000000000000008152600401610ab990614a23565b60405180910390fd5b6000610acd836120ea565b905080341015610b12576040517f08c379a0000000000000000000000000000000000000000000000000000000008152600401610b0990614a63565b60405180910390fd5b60018260060160006101000a81548160ff021916908315150217905550610b628260000160009054906101000a900473ffffffffffffffffffffffffffffffffffffffff16338460010154612f41565b60008134610b709190614e41565b90506000811115610bc3573373ffffffffffffffffffffffffffffffffffffffff166108fc829081150290604051600060405180830381858888f19350505050158015610bc1573d6000803e3d6000fd5b505b8260000160009054906101000a900473ffffffffffffffffffffffffffffffffffffffff1673ffffffffffffffffffffffffffffffffffffffff166108fc839081150290604051600060405180830381858888f19350505050158015610c2d573d6000803e3d6000fd5b5050505050565b606060038054610c4390614f07565b80601f0160208091040260200160405190810160405280929190818152602001828054610c6f90614f07565b8015610cbc5780601f10610c9157610100808354040283529160200191610cbc565b820191906000526020600020905b815481529060010190602001808311610c9f57829003601f168201915b5050505050905090565b6000610cd06131c2565b610cdb338484613254565b6001905092915050565b600b5481565b6000600254905090565b600080610d0061341f565b9050610d0d858285613427565b610d18858585612f41565b60019150509392505050565b60095481565b600a5481565b6000610d3a6131c2565b610d66600560009054906101000a900473ffffffffffffffffffffffffffffffffffffffff16836134b3565b7ff7c2cba1e426a73e262aa4840a2a0b889c6800be6533ecd35de40fd768f5b79282604051610d959190614c63565b60405180910390a1819050919050565b60006012905090565b610db6613613565b6000600d80549050603c80600a54610dce9190614de7565b610dd89190614de7565b610de29190614de7565b600b54610def9190614d60565b90506000600b54600b5483610e049190614e41565b600b5442610e129190614e41565b610e1c9190614f82565b610e269190614d60565b90506000603c80600a5486610e3b9190614de7565b610e459190614de7565b610e4f9190614de7565b600b54610e5c9190614d60565b90506000603c80600a54600188610e739190614d60565b610e7d9190614de7565b610e879190614de7565b610e919190614de7565b600b54610e9e9190614d60565b9050603c80600a54610eb09190614de7565b610eba9190614de7565b42610ec59190614e41565b601060003373ffffffffffffffffffffffffffffffffffffffff1673ffffffffffffffffffffffffffffffffffffffff168152602001908152602001600020600101541115610f49576040517f08c379a0000000000000000000000000000000000000000000000000000000008152600401610f4090614b03565b60405180910390fd5b82821115610f8c576040517f08c379a0000000000000000000000000000000000000000000000000000000008152600401610f8390614983565b60405180910390fd5b80831115610fcf576040517f08c379a0000000000000000000000000000000000000000000000000000000008152600401610fc690614be3565b60405180910390fd5b5050505050565b600080610fe161341f565b9050611075818585600160008673ffffffffffffffffffffffffffffffffffffffff1673ffffffffffffffffffffffffffffffffffffffff16815260200190815260200160002060008973ffffffffffffffffffffffffffffffffffffffff1673ffffffffffffffffffffffffffffffffffffffff168152602001908152602001600020546110709190614d60565b613254565b600191505092915050565b600061108a613613565b60005b600d8054905081101561114e578273ffffffffffffffffffffffffffffffffffffffff16600d82815481106110eb577f4e487b7100000000000000000000000000000000000000000000000000000000600052603260045260246000fd5b9060005260206000200160009054906101000a900473ffffffffffffffffffffffffffffffffffffffff1673ffffffffffffffffffffffffffffffffffffffff16141561113b5780915050611173565b808061114690614f39565b91505061108d565b507fffffffffffffffffffffffffffffffffffffffffffffffffffffffffffffffff90505b919050565b6111806131c2565b6000479050600081116111c8576040517f08c379a00000000000000000000000000000000000000000000000000000000081526004016111bf906148c3565b60405180910390fd5b3373ffffffffffffffffffffffffffffffffffffffff166108fc829081150290604051600060405180830381858888f1935050505015801561120e573d6000803e3d6000fd5b5050565b600060608060008060008060006060806060600560009054906101000a900473ffffffffffffffffffffffffffffffffffffffff1660066007600854600954600a54600b54600c60009054906101000a900460ff16600d600e600f89805461127990614f07565b80601f01602080910402602001604051908101604052809291908181526020018280546112a590614f07565b80156112f25780601f106112c7576101008083540402835291602001916112f2565b820191906000526020600020905b8154815290600101906020018083116112d557829003601f168201915b5050505050995088805461130590614f07565b80601f016020809104026020016040519081016040528092919081815260200182805461133190614f07565b801561137e5780601f106113535761010080835404028352916020019161137e565b820191906000526020600020905b81548152906001019060200180831161136157829003601f168201915b505050505098508280548060200260200160405190810160405280929190818152602001828054801561140657602002820191906000526020600020905b8160009054906101000a900473ffffffffffffffffffffffffffffffffffffffff1673ffffffffffffffffffffffffffffffffffffffff16815260200190600101908083116113bc575b5050505050925081805480602002602001604051908101604052809291908181526020016000905b8282101561150357838290600052602060002090600702016040518060e00160405290816000820160009054906101000a900473ffffffffffffffffffffffffffffffffffffffff1673ffffffffffffffffffffffffffffffffffffffff1673ffffffffffffffffffffffffffffffffffffffff16815260200160018201548152602001600282015481526020016003820154815260200160048201548152602001600582015481526020016006820160009054906101000a900460ff1615151515815250508152602001906001019061142e565b50505050915080805480602002602001604051908101604052809291908181526020016000905b828210156115d757838290600052602060002090600302016040518060600160405290816000820160009054906101000a900473ffffffffffffffffffffffffffffffffffffffff1673ffffffffffffffffffffffffffffffffffffffff1673ffffffffffffffffffffffffffffffffffffffff168152602001600182015481526020016002820160009054906101000a900460ff1615151515815250508152602001906001019061152a565b5050505090509a509a509a509a509a509a509a509a509a509a509a50909192939495969798999a565b6116086131c2565b601060008273ffffffffffffffffffffffffffffffffffffffff1673ffffffffffffffffffffffffffffffffffffffff16815260200190815260200160002060000160009054906101000a900460ff16611697576040517f08c379a000000000000000000000000000000000000000000000000000000000815260040161168e90614903565b60405180910390fd5b6000601060008373ffffffffffffffffffffffffffffffffffffffff1673ffffffffffffffffffffffffffffffffffffffff16815260200190815260200160002060000160006101000a81548160ff02191690831515021790555060006116fd82611080565b90506000811215611743576040517f08c379a000000000000000000000000000000000000000000000000000000000815260040161173a90614aa3565b60405180910390fd5b60008190505b6001600d8054905061175b9190614e41565b81101561186857600d6001826117719190614d60565b815481106117a8577f4e487b7100000000000000000000000000000000000000000000000000000000600052603260045260246000fd5b9060005260206000200160009054906101000a900473ffffffffffffffffffffffffffffffffffffffff16600d828154811061180d577f4e487b7100000000000000000000000000000000000000000000000000000000600052603260045260246000fd5b9060005260206000200160006101000a81548173ffffffffffffffffffffffffffffffffffffffff021916908373ffffffffffffffffffffffffffffffffffffffff160217905550808061186090614f39565b915050611749565b50600d6001600d8054905061187d9190614e41565b815481106118b4577f4e487b7100000000000000000000000000000000000000000000000000000000600052603260045260246000fd5b9060005260206000200160006101000a81549073ffffffffffffffffffffffffffffffffffffffff02191690555050565b600560009054906101000a900473ffffffffffffffffffffffffffffffffffffffff1681565b6006805461191890614f07565b80601f016020809104026020016040519081016040528092919081815260200182805461194490614f07565b80156119915780601f1061196657610100808354040283529160200191611991565b820191906000526020600020905b81548152906001019060200180831161197457829003601f168201915b505050505081565b6000336119a581613665565b6119ad613613565b600034116119f0576040517f08c379a00000000000000000000000000000000000000000000000000000000081526004016119e790614943565b60405180910390fd5b600854836119fe9190614de7565b3414611a3f576040517f08c379a0000000000000000000000000000000000000000000000000000000008152600401611a3690614a03565b60405180910390fd5b826009541015611a84576040517f08c379a0000000000000000000000000000000000000000000000000000000008152600401611a7b90614ae3565b60405180910390fd5b60003073ffffffffffffffffffffffffffffffffffffffff166370a08231600560009054906101000a900473ffffffffffffffffffffffffffffffffffffffff166040518263ffffffff1660e01b8152600401611ae1919061466e565b60206040518083038186803b158015611af957600080fd5b505afa158015611b0d573d6000803e3d6000fd5b505050506040513d601f19601f82011682018060405250810190611b3191906138b1565b905083811015611b76576040517f08c379a0000000000000000000000000000000000000000000000000000000008152600401611b6d90614a83565b60405180910390fd5b6000611b8133611080565b90506000811215611bc7576040517f08c379a0000000000000000000000000000000000000000000000000000000008152600401611bbe90614aa3565b60405180910390fd5b611bd081610dae565b42601060003373ffffffffffffffffffffffffffffffffffffffff1673ffffffffffffffffffffffffffffffffffffffff16815260200190815260200160002060010181905550611c44600560009054906101000a900473ffffffffffffffffffffffffffffffffffffffff163387612f41565b7e77a7b9b8b8207f3903ca75eade7730a828eadd952909ed2de6b640b069fb1733600560009054906101000a900473ffffffffffffffffffffffffffffffffffffffff163488604051611c9a9493929190614689565b60405180910390a1849350505050919050565b600e8181548110611cbd57600080fd5b90600052602060002090600702016000915090508060000160009054906101000a900473ffffffffffffffffffffffffffffffffffffffff16908060010154908060020154908060030154908060040154908060050154908060060160009054906101000a900460ff16905087565b60106020528060005260406000206000915090508060000160009054906101000a900460ff16908060010154905082565b6000816009819055507f825c9fb4f0cffa3329d32476caa1427e0e8cc52846ff8bf879ba6e200e2479ec600854604051611d979190614c63565b60405180910390a16009549050919050565b6000816008819055507f297b2709db98e958b5f673299215a4cb8d126c14a9e52a52901016cf9ba405ab600854604051611de39190614c63565b60405180910390a16008549050919050565b60008060008373ffffffffffffffffffffffffffffffffffffffff1673ffffffffffffffffffffffffffffffffffffffff168152602001908152602001600020549050919050565b60078054611e4a90614f07565b80601f0160208091040260200160405190810160405280929190818152602001828054611e7690614f07565b8015611ec35780601f10611e9857610100808354040283529160200191611ec3565b820191906000526020600020905b815481529060010190602001808311611ea657829003601f168201915b505050505081565b60085481565b33611edb81613665565b611ee3612ef0565b60003073ffffffffffffffffffffffffffffffffffffffff166370a08231336040518263ffffffff1660e01b8152600401611f1e919061466e565b60206040518083038186803b158015611f3657600080fd5b505afa158015611f4a573d6000803e3d6000fd5b505050506040513d601f19601f82011682018060405250810190611f6e91906138b1565b905085811015611fb3576040517f08c379a0000000000000000000000000000000000000000000000000000000008152600401611faa90614bc3565b60405180910390fd5b60006040518060e001604052803373ffffffffffffffffffffffffffffffffffffffff168152602001888152602001878152602001868152602001428152602001603c866120019190614de7565b4261200c9190614d60565b8152602001600015158152509050600e81908060018154018082558091505060019003906000526020600020906007020160009091909190915060008201518160000160006101000a81548173ffffffffffffffffffffffffffffffffffffffff021916908373ffffffffffffffffffffffffffffffffffffffff1602179055506020820151816001015560408201518160020155606082015181600301556080820151816004015560a0820151816005015560c08201518160060160006101000a81548160ff021916908315150217905550505050505050505050565b60006120f4612ef0565b6000600e8381548110612130577f4e487b7100000000000000000000000000000000000000000000000000000000600052603260045260246000fd5b90600052602060002090600702016040518060e00160405290816000820160009054906101000a900473ffffffffffffffffffffffffffffffffffffffff1673ffffffffffffffffffffffffffffffffffffffff1673ffffffffffffffffffffffffffffffffffffffff16815260200160018201548152602001600282015481526020016003820154815260200160048201548152602001600582015481526020016006820160009054906101000a900460ff16151515158152505090506000816060015182604001516122049190614e41565b9050816020015182608001518360a0015161221f9190614e41565b83608001514261222f9190614e41565b8361223a9190614de7565b6122449190614db6565b83604001516122539190614e41565b61225d9190614de7565b92505050919050565b60003361227281613665565b61227a612ef0565b600034116122bd576040517f08c379a00000000000000000000000000000000000000000000000000000000081526004016122b490614943565b60405180910390fd5b600854836122cb9190614de7565b341461230c576040517f08c379a000000000000000000000000000000000000000000000000000000000815260040161230390614a03565b60405180910390fd5b60003073ffffffffffffffffffffffffffffffffffffffff166370a08231600560009054906101000a900473ffffffffffffffffffffffffffffffffffffffff166040518263ffffffff1660e01b8152600401612369919061466e565b60206040518083038186803b15801561238157600080fd5b505afa158015612395573d6000803e3d6000fd5b505050506040513d601f19601f820116820180604052508101906123b991906138b1565b9050838110156123fe576040517f08c379a00000000000000000000000000000000000000000000000000000000081526004016123f590614a83565b60405180910390fd5b61242b600560009054906101000a900473ffffffffffffffffffffffffffffffffffffffff163386612f41565b7e77a7b9b8b8207f3903ca75eade7730a828eadd952909ed2de6b640b069fb1733600560009054906101000a900473ffffffffffffffffffffffffffffffffffffffff1634876040516124819493929190614689565b60405180910390a18392505050919050565b6060600480546124a290614f07565b80601f01602080910402602001604051908101604052809291908181526020018280546124ce90614f07565b801561251b5780601f106124f05761010080835404028352916020019161251b565b820191906000526020600020905b8154815290600101906020018083116124fe57829003601f168201915b5050505050905090565b60003361253181613665565b612539613613565b6000600f8581548110612575577f4e487b7100000000000000000000000000000000000000000000000000000000600052603260045260246000fd5b906000526020600020906003020190508060020160009054906101000a900460ff16156125d7576040517f08c379a00000000000000000000000000000000000000000000000000000000081526004016125ce90614b43565b60405180910390fd5b83600954101561261c576040517f08c379a000000000000000000000000000000000000000000000000000000000815260040161261390614ae3565b60405180910390fd5b6000341161265f576040517f08c379a000000000000000000000000000000000000000000000000000000000815260040161265690614943565b60405180910390fd5b6008548461266d9190614de7565b34146126ae576040517f08c379a00000000000000000000000000000000000000000000000000000000081526004016126a590614a03565b60405180910390fd5b60003073ffffffffffffffffffffffffffffffffffffffff166370a082318360000160009054906101000a900473ffffffffffffffffffffffffffffffffffffffff166040518263ffffffff1660e01b815260040161270d919061466e565b60206040518083038186803b15801561272557600080fd5b505afa158015612739573d6000803e3d6000fd5b505050506040513d601f19601f8201168201806040525081019061275d91906138b1565b9050848110156127a2576040517f08c379a000000000000000000000000000000000000000000000000000000000815260040161279990614ac3565b60405180910390fd5b60006127ad33611080565b905060008112156127f3576040517f08c379a00000000000000000000000000000000000000000000000000000000081526004016127ea90614aa3565b60405180910390fd5b6127fc81610dae565b42601060003373ffffffffffffffffffffffffffffffffffffffff1673ffffffffffffffffffffffffffffffffffffffff16815260200190815260200160002060010181905550858360010160008282546128579190614e41565b9250508190555060008360010154116128885760018360020160006101000a81548160ff0219169083151502179055505b6128b78360000160009054906101000a900473ffffffffffffffffffffffffffffffffffffffff163388612f41565b7e77a7b9b8b8207f3903ca75eade7730a828eadd952909ed2de6b640b069fb17338460000160009054906101000a900473ffffffffffffffffffffffffffffffffffffffff16348960405161290f9493929190614689565b60405180910390a18260000160009054906101000a900473ffffffffffffffffffffffffffffffffffffffff1673ffffffffffffffffffffffffffffffffffffffff166108fc349081150290604051600060405180830381858888f19350505050158015612981573d6000803e3d6000fd5b508594505050505092915050565b60008061299a61341f565b90506000600160008373ffffffffffffffffffffffffffffffffffffffff1673ffffffffffffffffffffffffffffffffffffffff16815260200190815260200160002060008673ffffffffffffffffffffffffffffffffffffffff1673ffffffffffffffffffffffffffffffffffffffff16815260200190815260200160002054905083811015612a60576040517f08c379a0000000000000000000000000000000000000000000000000000000008152600401612a5790614c23565b60405180910390fd5b612a6d8286868403613254565b60019250505092915050565b6000612a836131c2565b612a8e338484612f41565b6001905092915050565b600f8181548110612aa857600080fd5b90600052602060002090600302016000915090508060000160009054906101000a900473ffffffffffffffffffffffffffffffffffffffff16908060010154908060020160009054906101000a900460ff16905083565b600c60009054906101000a900460ff1681565b6000600160008473ffffffffffffffffffffffffffffffffffffffff1673ffffffffffffffffffffffffffffffffffffffff16815260200190815260200160002060008373ffffffffffffffffffffffffffffffffffffffff1673ffffffffffffffffffffffffffffffffffffffff16815260200190815260200160002054905092915050565b33612ba381613665565b612bab613613565b60003073ffffffffffffffffffffffffffffffffffffffff166370a08231336040518263ffffffff1660e01b8152600401612be6919061466e565b60206040518083038186803b158015612bfe57600080fd5b505afa158015612c12573d6000803e3d6000fd5b505050506040513d601f19601f82011682018060405250810190612c3691906138b1565b905082811015612c7b576040517f08c379a0000000000000000000000000000000000000000000000000000000008152600401612c7290614bc3565b60405180910390fd5b600060405180606001604052803373ffffffffffffffffffffffffffffffffffffffff168152602001858152602001600015158152509050600f81908060018154018082558091505060019003906000526020600020906003020160009091909190915060008201518160000160006101000a81548173ffffffffffffffffffffffffffffffffffffffff021916908373ffffffffffffffffffffffffffffffffffffffff1602179055506020820151816001015560408201518160020160006101000a81548160ff021916908315150217905550505050505050565b612d606131c2565b601060008273ffffffffffffffffffffffffffffffffffffffff1673ffffffffffffffffffffffffffffffffffffffff16815260200190815260200160002060000160009054906101000a900460ff1615612df0576040517f08c379a0000000000000000000000000000000000000000000000000000000008152600401612de790614a43565b60405180910390fd5b6001601060008373ffffffffffffffffffffffffffffffffffffffff1673ffffffffffffffffffffffffffffffffffffffff16815260200190815260200160002060000160006101000a81548160ff021916908315150217905550600d819080600181540180825580915050600190039060005260206000200160009091909190916101000a81548173ffffffffffffffffffffffffffffffffffffffff021916908373ffffffffffffffffffffffffffffffffffffffff16021790555050565b600d8181548110612ec157600080fd5b906000526020600020016000915054906101000a900473ffffffffffffffffffffffffffffffffffffffff1681565b600c60009054906101000a900460ff16612f3f576040517f08c379a0000000000000000000000000000000000000000000000000000000008152600401612f3690614963565b60405180910390fd5b565b600073ffffffffffffffffffffffffffffffffffffffff168373ffffffffffffffffffffffffffffffffffffffff161415612fb1576040517f08c379a0000000000000000000000000000000000000000000000000000000008152600401612fa890614b83565b60405180910390fd5b600073ffffffffffffffffffffffffffffffffffffffff168273ffffffffffffffffffffffffffffffffffffffff161415613021576040517f08c379a0000000000000000000000000000000000000000000000000000000008152600401613018906148e3565b60405180910390fd5b61302c83838361374f565b60008060008573ffffffffffffffffffffffffffffffffffffffff1673ffffffffffffffffffffffffffffffffffffffff168152602001908152602001600020549050818110156130b2576040517f08c379a00000000000000000000000000000000000000000000000000000000081526004016130a9906149c3565b60405180910390fd5b8181036000808673ffffffffffffffffffffffffffffffffffffffff1673ffffffffffffffffffffffffffffffffffffffff16815260200190815260200160002081905550816000808573ffffffffffffffffffffffffffffffffffffffff1673ffffffffffffffffffffffffffffffffffffffff16815260200190815260200160002060008282546131459190614d60565b925050819055508273ffffffffffffffffffffffffffffffffffffffff168473ffffffffffffffffffffffffffffffffffffffff167fddf252ad1be2c89b69c2b068fc378daa952ba7f163c4a11628f55a4df523b3ef846040516131a99190614c63565b60405180910390a36131bc848484613754565b50505050565b600560009054906101000a900473ffffffffffffffffffffffffffffffffffffffff1673ffffffffffffffffffffffffffffffffffffffff163373ffffffffffffffffffffffffffffffffffffffff1614613252576040517f08c379a000000000000000000000000000000000000000000000000000000000815260040161324990614c03565b60405180910390fd5b565b600073ffffffffffffffffffffffffffffffffffffffff168373ffffffffffffffffffffffffffffffffffffffff1614156132c4576040517f08c379a00000000000000000000000000000000000000000000000000000000081526004016132bb90614ba3565b60405180910390fd5b600073ffffffffffffffffffffffffffffffffffffffff168273ffffffffffffffffffffffffffffffffffffffff161415613334576040517f08c379a000000000000000000000000000000000000000000000000000000000815260040161332b90614923565b60405180910390fd5b80600160008573ffffffffffffffffffffffffffffffffffffffff1673ffffffffffffffffffffffffffffffffffffffff16815260200190815260200160002060008473ffffffffffffffffffffffffffffffffffffffff1673ffffffffffffffffffffffffffffffffffffffff168152602001908152602001600020819055508173ffffffffffffffffffffffffffffffffffffffff168373ffffffffffffffffffffffffffffffffffffffff167f8c5be1e5ebec7d5bd14f71427d1e84f3dd0314c0f7b2291e5b200ac8c7c3b925836040516134129190614c63565b60405180910390a3505050565b600033905090565b60006134338484612b12565b90507fffffffffffffffffffffffffffffffffffffffffffffffffffffffffffffffff81146134ad578181101561349f576040517f08c379a0000000000000000000000000000000000000000000000000000000008152600401613496906149a3565b60405180910390fd5b6134ac8484848403613254565b5b50505050565b600073ffffffffffffffffffffffffffffffffffffffff168273ffffffffffffffffffffffffffffffffffffffff161415613523576040517f08c379a000000000000000000000000000000000000000000000000000000000815260040161351a90614c43565b60405180910390fd5b61352f6000838361374f565b80600260008282546135419190614d60565b92505081905550806000808473ffffffffffffffffffffffffffffffffffffffff1673ffffffffffffffffffffffffffffffffffffffff16815260200190815260200160002060008282546135969190614d60565b925050819055508173ffffffffffffffffffffffffffffffffffffffff16600073ffffffffffffffffffffffffffffffffffffffff167fddf252ad1be2c89b69c2b068fc378daa952ba7f163c4a11628f55a4df523b3ef836040516135fb9190614c63565b60405180910390a361360f60008383613754565b5050565b600c60009054906101000a900460ff1615613663576040517f08c379a000000000000000000000000000000000000000000000000000000000815260040161365a90614b23565b60405180910390fd5b565b601060008273ffffffffffffffffffffffffffffffffffffffff1673ffffffffffffffffffffffffffffffffffffffff16815260200190815260200160002060000160009054906101000a900460ff168061370d5750600560009054906101000a900473ffffffffffffffffffffffffffffffffffffffff1673ffffffffffffffffffffffffffffffffffffffff163373ffffffffffffffffffffffffffffffffffffffff16145b61374c576040517f08c379a000000000000000000000000000000000000000000000000000000000815260040161374390614b63565b60405180910390fd5b50565b505050565b505050565b60008135905061376881615051565b92915050565b60008135905061377d81615068565b92915050565b60008151905061379281615068565b92915050565b6000602082840312156137aa57600080fd5b60006137b884828501613759565b91505092915050565b600080604083850312156137d457600080fd5b60006137e285828601613759565b92505060206137f385828601613759565b9150509250929050565b60008060006060848603121561381257600080fd5b600061382086828701613759565b935050602061383186828701613759565b92505060406138428682870161376e565b9150509250925092565b6000806040838503121561385f57600080fd5b600061386d85828601613759565b925050602061387e8582860161376e565b9150509250929050565b60006020828403121561389a57600080fd5b60006138a88482850161376e565b91505092915050565b6000602082840312156138c357600080fd5b60006138d184828501613783565b91505092915050565b600080604083850312156138ed57600080fd5b60006138fb8582860161376e565b925050602061390c8582860161376e565b9150509250929050565b6000806000806080858703121561392c57600080fd5b600061393a8782880161376e565b945050602061394b8782880161376e565b935050604061395c8782880161376e565b925050606061396d8782880161376e565b91505092959194509250565b600061398583836139c1565b60208301905092915050565b600061399d8383614571565b60e08301905092915050565b60006139b583836145ff565b60608301905092915050565b6139ca81614e75565b82525050565b6139d981614e75565b82525050565b60006139ea82614cc9565b6139f48185614d1c565b93506139ff83614c99565b8060005b83811015613a30578151613a178882613979565b9750613a2283614cf5565b925050600181019050613a03565b5085935050505092915050565b6000613a4882614cd4565b613a528185614d2d565b9350613a5d83614ca9565b8060005b83811015613a8e578151613a758882613991565b9750613a8083614d02565b925050600181019050613a61565b5085935050505092915050565b6000613aa682614cdf565b613ab08185614d3e565b9350613abb83614cb9565b8060005b83811015613aec578151613ad388826139a9565b9750613ade83614d0f565b925050600181019050613abf565b5085935050505092915050565b613b0281614e87565b82525050565b613b1181614e87565b82525050565b613b2081614e93565b82525050565b6000613b3182614cea565b613b3b8185614d4f565b9350613b4b818560208601614ed4565b613b5481615040565b840191505092915050565b6000613b6c602383614d4f565b91507f436f6e747261637420686173206e6f2062616c616e636520746f20776974686460008301527f72617700000000000000000000000000000000000000000000000000000000006020830152604082019050919050565b6000613bd2602383614d4f565b91507f45524332303a207472616e7366657220746f20746865207a65726f206164647260008301527f65737300000000000000000000000000000000000000000000000000000000006020830152604082019050919050565b6000613c38601483614d4f565b91507f416c726561647920626c61636b206c69737465640000000000000000000000006000830152602082019050919050565b6000613c78602283614d4f565b91507f45524332303a20617070726f766520746f20746865207a65726f20616464726560008301527f73730000000000000000000000000000000000000000000000000000000000006020830152604082019050919050565b6000613cde601b83614d4f565b91507f53656e642045544820746f2062757920736f6d6520746f6b656e7300000000006000830152602082019050919050565b6000613d1e602583614d4f565b91507f46756e6374696f6e73206f6e6c7920617661696c61626c6520666f722061756360008301527f74696f6e730000000000000000000000000000000000000000000000000000006020830152604082019050919050565b6000613d84602f83614d4f565b91507f496e766573746f7273206e6565647320746f20776169742e204974277320746f60008301527f6f206561726c7920746f206275792e00000000000000000000000000000000006020830152604082019050919050565b6000613dea601d83614d4f565b91507f45524332303a20696e73756666696369656e7420616c6c6f77616e63650000006000830152602082019050919050565b6000613e2a602683614d4f565b91507f45524332303a207472616e7366657220616d6f756e742065786365656473206260008301527f616c616e636500000000000000000000000000000000000000000000000000006020830152604082019050919050565b6000613e90601983614d4f565b91507f546869732061756374696f6e20697320636f6d706c65746564000000000000006000830152602082019050919050565b6000613ed0602783614d4f565b91507f53656e6420726967687420616d6f756e74206f662045544820666f722074686560008301527f20746f6b656e73000000000000000000000000000000000000000000000000006020830152604082019050919050565b6000613f36601683614d4f565b91507f546869732061756374696f6e2068617320656e646564000000000000000000006000830152602082019050919050565b6000613f76601483614d4f565b91507f416c7265616479207768697465206c69737465640000000000000000000000006000830152602082019050919050565b6000613fb6603683614d4f565b91507f54686520616d6f756e74206f66204554482073656e74206973206c657373207460008301527f68616e20746865207072696365206f6620746f6b656e000000000000000000006020830152604082019050919050565b600061401c603183614d4f565b91507f46756e64206d616e6167657220686173206e6f7420656e6f75676820746f6b6560008301527f6e7320696e206974732062616c616e63650000000000000000000000000000006020830152604082019050919050565b6000614082602583614d4f565b91507f496e766573746f72206973206e6f7420666f756e6420696e2077616974696e6760008301527f206c6973740000000000000000000000000000000000000000000000000000006020830152604082019050919050565b60006140e8603583614d4f565b91507f53656c6c657220686173206e6f7420656e6f75676820746f6b656e732028616e60008301527f796d6f72652920696e206974732062616c616e636500000000000000000000006020830152604082019050919050565b600061414e602083614d4f565b91507f546f6b656e732070657220696e766573746f72206361702065786365656465646000830152602082019050919050565b600061418e603983614d4f565b91507f496e766573746f7220626f7567687420746f6b656e7320616c72656164792e2060008301527f5761697420756e74696c20796f7572206e657874207475726e000000000000006020830152604082019050919050565b60006141f4603383614d4f565b91507f46756e6374696f6e73206f6e6c7920617661696c61626c6520666f722077616960008301527f74696e67206c697374206d656368616e69736d000000000000000000000000006020830152604082019050919050565b600061425a601983614d4f565b91507f546869732073656c6c696e6720697320636f6d706c65746564000000000000006000830152602082019050919050565b600061429a603383614d4f565b91507f596f7520617265206e6f7420612077686974652d6c697374656420696e76657360008301527f746f72206e6f7220746865206d616e61676572000000000000000000000000006020830152604082019050919050565b6000614300602583614d4f565b91507f45524332303a207472616e736665722066726f6d20746865207a65726f20616460008301527f64726573730000000000000000000000000000000000000000000000000000006020830152604082019050919050565b6000614366602483614d4f565b91507f45524332303a20617070726f76652066726f6d20746865207a65726f2061646460008301527f72657373000000000000000000000000000000000000000000000000000000006020830152604082019050919050565b60006143cc602b83614d4f565b91507f53656c6c657220686173206e6f7420656e6f75676820746f6b656e7320696e2060008301527f6974732062616c616e63650000000000000000000000000000000000000000006020830152604082019050919050565b6000614432602e83614d4f565b91507f496e766573746f7273206e6565647320746f20776169742e204974277320746f60008301527f6f206c61746520746f206275792e0000000000000000000000000000000000006020830152604082019050919050565b6000614498601d83614d4f565b91507f4f6e6c7920616c6c6f77656420666f722066756e64206d616e616765720000006000830152602082019050919050565b60006144d8602583614d4f565b91507f45524332303a2064656372656173656420616c6c6f77616e63652062656c6f7760008301527f207a65726f0000000000000000000000000000000000000000000000000000006020830152604082019050919050565b600061453e601f83614d4f565b91507f45524332303a206d696e7420746f20746865207a65726f2061646472657373006000830152602082019050919050565b60e08201600082015161458760008501826139c1565b50602082015161459a6020850182614641565b5060408201516145ad6040850182614641565b5060608201516145c06060850182614641565b5060808201516145d36080850182614641565b5060a08201516145e660a0850182614641565b5060c08201516145f960c0850182613af9565b50505050565b60608201600082015161461560008501826139c1565b5060208201516146286020850182614641565b50604082015161463b6040850182613af9565b50505050565b61464a81614ebd565b82525050565b61465981614ebd565b82525050565b61466881614ec7565b82525050565b600060208201905061468360008301846139d0565b92915050565b600060808201905061469e60008301876139d0565b6146ab60208301866139d0565b6146b86040830185614650565b6146c56060830184614650565b95945050505050565b6000610160820190506146e4600083018e6139d0565b81810360208301526146f6818d613b26565b9050818103604083015261470a818c613b26565b9050614719606083018b614650565b614726608083018a614650565b61473360a0830189614650565b61474060c0830188614650565b61474d60e0830187613b08565b81810361010083015261476081866139df565b90508181036101208301526147758185613a3d565b905081810361014083015261478a8184613a9b565b90509c9b505050505050505050505050565b60006060820190506147b160008301866139d0565b6147be6020830185614650565b6147cb6040830184613b08565b949350505050565b600060e0820190506147e8600083018a6139d0565b6147f56020830189614650565b6148026040830188614650565b61480f6060830187614650565b61481c6080830186614650565b61482960a0830185614650565b61483660c0830184613b08565b98975050505050505050565b60006020820190506148576000830184613b08565b92915050565b60006040820190506148726000830185613b08565b61487f6020830184614650565b9392505050565b600060208201905061489b6000830184613b17565b92915050565b600060208201905081810360008301526148bb8184613b26565b905092915050565b600060208201905081810360008301526148dc81613b5f565b9050919050565b600060208201905081810360008301526148fc81613bc5565b9050919050565b6000602082019050818103600083015261491c81613c2b565b9050919050565b6000602082019050818103600083015261493c81613c6b565b9050919050565b6000602082019050818103600083015261495c81613cd1565b9050919050565b6000602082019050818103600083015261497c81613d11565b9050919050565b6000602082019050818103600083015261499c81613d77565b9050919050565b600060208201905081810360008301526149bc81613ddd565b9050919050565b600060208201905081810360008301526149dc81613e1d565b9050919050565b600060208201905081810360008301526149fc81613e83565b9050919050565b60006020820190508181036000830152614a1c81613ec3565b9050919050565b60006020820190508181036000830152614a3c81613f29565b9050919050565b60006020820190508181036000830152614a5c81613f69565b9050919050565b60006020820190508181036000830152614a7c81613fa9565b9050919050565b60006020820190508181036000830152614a9c8161400f565b9050919050565b60006020820190508181036000830152614abc81614075565b9050919050565b60006020820190508181036000830152614adc816140db565b9050919050565b60006020820190508181036000830152614afc81614141565b9050919050565b60006020820190508181036000830152614b1c81614181565b9050919050565b60006020820190508181036000830152614b3c816141e7565b9050919050565b60006020820190508181036000830152614b5c8161424d565b9050919050565b60006020820190508181036000830152614b7c8161428d565b9050919050565b60006020820190508181036000830152614b9c816142f3565b9050919050565b60006020820190508181036000830152614bbc81614359565b9050919050565b60006020820190508181036000830152614bdc816143bf565b9050919050565b60006020820190508181036000830152614bfc81614425565b9050919050565b60006020820190508181036000830152614c1c8161448b565b9050919050565b60006020820190508181036000830152614c3c816144cb565b9050919050565b60006020820190508181036000830152614c5c81614531565b9050919050565b6000602082019050614c786000830184614650565b92915050565b6000602082019050614c93600083018461465f565b92915050565b6000819050602082019050919050565b6000819050602082019050919050565b6000819050602082019050919050565b600081519050919050565b600081519050919050565b600081519050919050565b600081519050919050565b6000602082019050919050565b6000602082019050919050565b6000602082019050919050565b600082825260208201905092915050565b600082825260208201905092915050565b600082825260208201905092915050565b600082825260208201905092915050565b6000614d6b82614ebd565b9150614d7683614ebd565b9250827fffffffffffffffffffffffffffffffffffffffffffffffffffffffffffffffff03821115614dab57614daa614fb3565b5b828201905092915050565b6000614dc182614ebd565b9150614dcc83614ebd565b925082614ddc57614ddb614fe2565b5b828204905092915050565b6000614df282614ebd565b9150614dfd83614ebd565b9250817fffffffffffffffffffffffffffffffffffffffffffffffffffffffffffffffff0483118215151615614e3657614e35614fb3565b5b828202905092915050565b6000614e4c82614ebd565b9150614e5783614ebd565b925082821015614e6a57614e69614fb3565b5b828203905092915050565b6000614e8082614e9d565b9050919050565b60008115159050919050565b6000819050919050565b600073ffffffffffffffffffffffffffffffffffffffff82169050919050565b6000819050919050565b600060ff82169050919050565b60005b83811015614ef2578082015181840152602081019050614ed7565b83811115614f01576000848401525b50505050565b60006002820490506001821680614f1f57607f821691505b60208210811415614f3357614f32615011565b5b50919050565b6000614f4482614ebd565b91507fffffffffffffffffffffffffffffffffffffffffffffffffffffffffffffffff821415614f7757614f76614fb3565b5b600182019050919050565b6000614f8d82614ebd565b9150614f9883614ebd565b925082614fa857614fa7614fe2565b5b828206905092915050565b7f4e487b7100000000000000000000000000000000000000000000000000000000600052601160045260246000fd5b7f4e487b7100000000000000000000000000000000000000000000000000000000600052601260045260246000fd5b7f4e487b7100000000000000000000000000000000000000000000000000000000600052602260045260246000fd5b6000601f19601f8301169050919050565b61505a81614e75565b811461506557600080fd5b50565b61507181614ebd565b811461507c57600080fd5b5056fea264697066735822122020297454317b2ae9e087ce197ff6a85989d2e0aae565f80935782b19973922de64736f6c63430008000033",
  "immutableReferences": {},
  "source": "// SPDX-License-Identifier: MIT\r\n\r\npragma solidity ^0.8.0;\r\n\r\n/**\r\n * @title Closed-End Fund\r\n * @dev Tun Polat\r\n **/\r\n\r\nimport \"@openzeppelin/contracts/token/ERC20/ERC20.sol\";\r\n\r\ncontract CEFFactory {\r\n    ClosedEndFund[] public deployedCEF;\r\n\r\n    function createCEF(\r\n        string memory _title,\r\n        string memory _description,\r\n        uint256 _tokenPrice,\r\n        uint256 _initialSupply,\r\n        uint256 _tokensPerInvestor,\r\n        bool _isDutchAuction,\r\n        uint256 _timeToBuyInHours,\r\n        address[] memory _whiteListedInvestors\r\n    ) public {\r\n        ClosedEndFund newCEF = new ClosedEndFund(\r\n            msg.sender,\r\n            _title,\r\n            _description,\r\n            _tokenPrice,\r\n            _initialSupply,\r\n            _tokensPerInvestor,\r\n            _isDutchAuction,\r\n            _timeToBuyInHours,\r\n            _whiteListedInvestors\r\n        );\r\n        deployedCEF.push(newCEF);\r\n    }\r\n\r\n    function getDeployedCEF() public view returns (ClosedEndFund[] memory) {\r\n        return deployedCEF;\r\n    }\r\n}\r\n\r\ncontract CEFToken is ERC20 {\r\n    constructor(address _manager, uint256 initialSupply)\r\n        ERC20(\"CEF TOKEN\", \"CEF\")\r\n    {\r\n        _mint(_manager, initialSupply);\r\n    }\r\n}\r\n\r\ncontract ClosedEndFund is CEFToken {\r\n    // *** VARIABLES *** //\r\n    address public manager; // address of the fund manager\r\n    string public title; // name of the fund\r\n    string public description; // description of the fund\r\n    uint256 public tokenPrice; // in WEI\r\n    uint256 public tokensPerInvestor; // tokens that investor can buy at once\r\n    uint256 public timeToBuyInHours; // time frame to buy tokens\r\n    uint256 public startDate; // start date when CA is deployed\r\n    bool public isDutchAuction; // decide whether it's a dutch auction or waiting list mechanism\r\n    address[] public waitingList;\r\n\r\n    // *** STRUCT *** //\r\n    struct Auction {\r\n        address seller; // addres of seller\r\n        uint256 amountToSell; // amount of tokens to sell\r\n        uint256 startingPrice; // starting price of auction\r\n        uint256 minimumPrice; // mimimun price of auction\r\n        uint256 startAt; // start date\r\n        uint256 expiresAt; // end date\r\n        bool completed; // true if the auction has already been closed\r\n    }\r\n\r\n    Auction[] public auctions;\r\n\r\n    // used for waiting list mechanism\r\n    struct Selling {\r\n        address seller;\r\n        uint256 amountToSell; // amount of tokens to sell\r\n        bool completed; // true if the auction has already been closed\r\n    }\r\n\r\n    Selling[] public sellings;\r\n\r\n    struct Investor {\r\n        bool whiteListed;\r\n        uint256 timeLastBoughtTokens;\r\n    }\r\n\r\n    mapping(address => Investor) public whiteListedInvestors;\r\n\r\n    // *** EVENTS *** //\r\n    event BuyTokens(\r\n        address buyer,\r\n        address seller,\r\n        uint256 amountOfETH,\r\n        uint256 amountOfTokens\r\n    );\r\n    event CapitalCall(uint256 amountOfTokens);\r\n    event SetNewTokenPrice(uint256 newTokenPrice);\r\n    event SetNewTokenCap(uint256 newTokenCap);\r\n\r\n    // *** MODIFIERS *** //\r\n    function _onlyManager() private view {\r\n        require(msg.sender == manager, \"Only allowed for fund manager\");\r\n    }\r\n\r\n    modifier onlyManager() {\r\n        _onlyManager();\r\n        _;\r\n    }\r\n\r\n    function _isWhiteListed(address _address) private view {\r\n        require(\r\n            whiteListedInvestors[_address].whiteListed ||\r\n                (msg.sender == manager),\r\n            \"You are not a white-listed investor nor the manager\"\r\n        );\r\n    }\r\n\r\n    modifier isWhiteListed(address _address) {\r\n        _isWhiteListed(_address);\r\n        _;\r\n    }\r\n\r\n    function _isAuction() private view {\r\n        require(isDutchAuction, \"Functions only available for auctions\");\r\n    }\r\n\r\n    modifier isAuction() {\r\n        _isAuction();\r\n        _;\r\n    }\r\n\r\n    function _isWaitingList() private view {\r\n        require(\r\n            !isDutchAuction,\r\n            \"Functions only available for waiting list mechanism\"\r\n        );\r\n    }\r\n\r\n    modifier isWaitingList() {\r\n        _isWaitingList();\r\n        _;\r\n    }\r\n\r\n    constructor(\r\n        address _manager,\r\n        string memory _title,\r\n        string memory _description,\r\n        uint256 _tokenPrice,\r\n        uint256 _initialSupply,\r\n        uint256 _tokensPerInvestor,\r\n        bool _isDutchAuction,\r\n        uint256 _timeToBuyInHours,\r\n        address[] memory _whiteListedInvestors\r\n    ) CEFToken(_manager, _initialSupply) {\r\n        manager = _manager;\r\n        title = _title;\r\n        description = _description;\r\n        tokenPrice = _tokenPrice;\r\n        tokensPerInvestor = _tokensPerInvestor;\r\n        isDutchAuction = _isDutchAuction;\r\n        timeToBuyInHours = _timeToBuyInHours;\r\n        startDate = block.timestamp;\r\n        waitingList = _whiteListedInvestors;\r\n\r\n        // add investors to mapping (whitelisting) - O(n) linear algorithm - it's ok if amount of white-listed Investors is small\r\n        for (uint256 i = 0; i < _whiteListedInvestors.length; i++) {\r\n            address whiteListedInvestor = _whiteListedInvestors[i];\r\n            whiteListedInvestors[whiteListedInvestor].whiteListed = true;\r\n        }\r\n    }\r\n\r\n    // *** DUTCH AUCTION *** //\r\n\r\n    // no restriction buying issued tokens\r\n    function buyIssuedAuctionTokensFromManager(uint256 _amountOfTokens)\r\n        public\r\n        payable\r\n        isWhiteListed(msg.sender)\r\n        isAuction\r\n        returns (uint256 tokenAmount)\r\n    {\r\n        require(msg.value > 0, \"Send ETH to buy some tokens\");\r\n        require(\r\n            msg.value == _amountOfTokens * tokenPrice,\r\n            \"Send right amount of ETH for the tokens\"\r\n        );\r\n\r\n        // check manager balance\r\n        uint256 managerBalance = this.balanceOf(manager);\r\n        require(\r\n            managerBalance >= _amountOfTokens,\r\n            \"Fund manager has not enough tokens in its balance\"\r\n        );\r\n\r\n        // Transfer token to the buyer\r\n        _transfer(manager, msg.sender, _amountOfTokens);\r\n\r\n        // emit the event\r\n        emit BuyTokens(msg.sender, manager, msg.value, _amountOfTokens);\r\n\r\n        return _amountOfTokens;\r\n    }\r\n\r\n    function startAuction(\r\n        uint256 _amountToSell,\r\n        uint256 _startingPrice,\r\n        uint256 _minimumPrice,\r\n        uint256 _durationInMinutes\r\n    ) public isWhiteListed(msg.sender) isAuction {\r\n        // check amount of tokens\r\n        uint256 sellerBalance = this.balanceOf(msg.sender);\r\n        require(\r\n            sellerBalance >= _amountToSell,\r\n            \"Seller has not enough tokens in its balance\"\r\n        );\r\n\r\n        // initalize auction\r\n        Auction memory newAuction = Auction({\r\n            seller: msg.sender,\r\n            amountToSell: _amountToSell,\r\n            startingPrice: _startingPrice,\r\n            minimumPrice: _minimumPrice,\r\n            startAt: block.timestamp,\r\n            expiresAt: block.timestamp + _durationInMinutes * 1 minutes,\r\n            completed: false\r\n        });\r\n\r\n        // push to auction array\r\n        auctions.push(newAuction);\r\n    }\r\n\r\n    function getAuctionPrice(uint256 index)\r\n        public\r\n        view\r\n        isAuction\r\n        returns (uint256)\r\n    {\r\n        Auction memory auction = auctions[index]; // access auction\r\n        uint256 priceGap = auction.startingPrice - auction.minimumPrice;\r\n        return\r\n            (\r\n                (auction.startingPrice -\r\n                    ((priceGap * (block.timestamp - auction.startAt)) /\r\n                        (auction.expiresAt - auction.startAt)))\r\n            ) * auction.amountToSell;\r\n    }\r\n\r\n    function buyAuctionToken(uint256 index) external payable isAuction {\r\n        Auction storage auction = auctions[index]; // access auction; storage because need to change variable\r\n\r\n        require(!auction.completed, \"This auction is completed\");\r\n        require(block.timestamp < auction.expiresAt, \"This auction has ended\");\r\n\r\n        uint256 price = getAuctionPrice(index);\r\n        require(\r\n            msg.value >= price,\r\n            \"The amount of ETH sent is less than the price of token\"\r\n        );\r\n\r\n        auction.completed = true; // close auction\r\n\r\n        _transfer(auction.seller, msg.sender, auction.amountToSell); // transfer token (re-entrancy attack danger?) + if balance to enough transfer aborted (no-double spending)\r\n\r\n        uint256 refund = msg.value - price;\r\n        if (refund > 0) {\r\n            payable(msg.sender).transfer(refund); // refund buyer if payed too much\r\n        }\r\n\r\n        payable(auction.seller).transfer(price); // transfer money to seller\r\n    }\r\n\r\n    // *** WAITING LIST MECHANISM *** //\r\n\r\n    function buyIssuedWaitingListTokensFromManager(uint256 _amountOfTokens)\r\n        public\r\n        payable\r\n        isWhiteListed(msg.sender)\r\n        isWaitingList\r\n        returns (uint256 tokenAmount)\r\n    {\r\n        require(msg.value > 0, \"Send ETH to buy some tokens\");\r\n        require(\r\n            msg.value == _amountOfTokens * tokenPrice,\r\n            \"Send right amount of ETH for the tokens\"\r\n        );\r\n        require(\r\n            tokensPerInvestor >= _amountOfTokens,\r\n            \"Tokens per investor cap exceeded\"\r\n        );\r\n\r\n        // check manager balance\r\n        uint256 managerBalance = this.balanceOf(manager);\r\n        require(\r\n            managerBalance >= _amountOfTokens,\r\n            \"Fund manager has not enough tokens in its balance\"\r\n        );\r\n\r\n        // check waiting list position of buyer\r\n        int256 idx = findIndexInArray(msg.sender);\r\n        require(idx >= 0, \"Investor is not found in waiting list\");\r\n\r\n        // check time restriction\r\n        checkTimeRestriction(uint256(idx));\r\n\r\n        // after checks: allow to buy\r\n\r\n        whiteListedInvestors[msg.sender].timeLastBoughtTokens = block.timestamp;\r\n\r\n        // Transfer token to the buyer\r\n        _transfer(manager, msg.sender, _amountOfTokens);\r\n\r\n        // emit the event\r\n        emit BuyTokens(msg.sender, manager, msg.value, _amountOfTokens);\r\n\r\n        return _amountOfTokens;\r\n    }\r\n\r\n    function sellWaitingListToken(uint256 _amountToSell)\r\n        public\r\n        isWhiteListed(msg.sender)\r\n        isWaitingList\r\n    {\r\n        // check amount of tokens\r\n        uint256 sellerBalance = this.balanceOf(msg.sender);\r\n        require(\r\n            sellerBalance >= _amountToSell,\r\n            \"Seller has not enough tokens in its balance\"\r\n        );\r\n\r\n        // initalize selling\r\n        Selling memory newSelling = Selling({\r\n            seller: msg.sender,\r\n            amountToSell: _amountToSell,\r\n            completed: false\r\n        });\r\n\r\n        // push to sellings array\r\n        sellings.push(newSelling);\r\n    }\r\n\r\n    function buyWaitingListToken(uint256 index, uint256 _amountOfTokens)\r\n        public\r\n        payable\r\n        isWhiteListed(msg.sender)\r\n        isWaitingList\r\n        returns (uint256 tokenAmount)\r\n    {\r\n        Selling storage selling = sellings[index]; // access selling; storage because need to change variable\r\n        require(!selling.completed, \"This selling is completed\");\r\n        require(\r\n            tokensPerInvestor >= _amountOfTokens,\r\n            \"Tokens per investor cap exceeded\"\r\n        );\r\n        require(msg.value > 0, \"Send ETH to buy some tokens\");\r\n        require(\r\n            msg.value == _amountOfTokens * tokenPrice,\r\n            \"Send right amount of ETH for the tokens\"\r\n        );\r\n\r\n        // check investors balance\r\n        uint256 sellerBalance = this.balanceOf(selling.seller);\r\n        require(\r\n            sellerBalance >= _amountOfTokens,\r\n            \"Seller has not enough tokens (anymore) in its balance\"\r\n        );\r\n\r\n        // check waiting list position\r\n        int256 idx = findIndexInArray(msg.sender);\r\n        require(idx >= 0, \"Investor is not found in waiting list\");\r\n\r\n        // check time restriction\r\n        checkTimeRestriction(uint256(idx));\r\n\r\n        // after checks: allow to buy\r\n\r\n        // set time of buying for investor\r\n        whiteListedInvestors[msg.sender].timeLastBoughtTokens = block.timestamp;\r\n\r\n        // set completed to true if all tokens are sold\r\n        selling.amountToSell -= _amountOfTokens;\r\n        if (selling.amountToSell <= 0) {\r\n            selling.completed = true;\r\n        }\r\n\r\n        _transfer(selling.seller, msg.sender, _amountOfTokens); // Transfer token to the buyer\r\n\r\n        emit BuyTokens(msg.sender, selling.seller, msg.value, _amountOfTokens); // emit the event\r\n\r\n        payable(selling.seller).transfer(msg.value); // transfer (exact) money to seller\r\n\r\n        return (_amountOfTokens);\r\n    }\r\n\r\n    // *** Corporate Actions *** //\r\n\r\n    // manager can withdraw to invest\r\n    function withdraw() public onlyManager {\r\n        uint256 contractBalance = address(this).balance;\r\n        require(contractBalance > 0, \"Contract has no balance to withdraw\");\r\n        payable(msg.sender).transfer(contractBalance);\r\n    }\r\n\r\n    // add investor to white-list\r\n    function addInvestor(address _addressToWhitelist) public onlyManager {\r\n        require(\r\n            !whiteListedInvestors[_addressToWhitelist].whiteListed,\r\n            \"Already white listed\"\r\n        );\r\n        whiteListedInvestors[_addressToWhitelist].whiteListed = true;\r\n        waitingList.push(_addressToWhitelist);\r\n    }\r\n\r\n    // remove investor from white-list\r\n    function removeInvestor(address _addressToBlacklist) public onlyManager {\r\n        require(\r\n            whiteListedInvestors[_addressToBlacklist].whiteListed,\r\n            \"Already black listed\"\r\n        );\r\n        whiteListedInvestors[_addressToBlacklist].whiteListed = false; // kind of blacklist; not really removed\r\n\r\n        // remove from waiting list in an ordered way\r\n        int256 index = findIndexInArray(_addressToBlacklist);\r\n        require(index >= 0, \"Investor is not found in waiting list\");\r\n        for (uint256 i = uint256(index); i < waitingList.length - 1; i++) {\r\n            waitingList[i] = waitingList[i + 1];\r\n        }\r\n        delete waitingList[waitingList.length - 1];\r\n    }\r\n\r\n    // capital call\r\n    function mintNewTokens(uint256 _amountOfTokens)\r\n        public\r\n        onlyManager\r\n        returns (uint256)\r\n    {\r\n        _mint(manager, _amountOfTokens); // mint new tokens\r\n        emit CapitalCall(_amountOfTokens); // emit the event\r\n        return _amountOfTokens;\r\n    }\r\n\r\n    // set new token price\r\n    function setTokenPrice(uint256 _newTokenPrice) public returns (uint256) {\r\n        tokenPrice = _newTokenPrice; // set new token price\r\n        emit SetNewTokenPrice(tokenPrice); // emit the event\r\n        return tokenPrice;\r\n    }\r\n\r\n    // set new token per investor\r\n    function setTokenPerInvestor(uint256 _newTokenCap)\r\n        public\r\n        returns (uint256)\r\n    {\r\n        tokensPerInvestor = _newTokenCap; // set new token price\r\n        emit SetNewTokenCap(tokenPrice); // emit the event\r\n        return tokensPerInvestor;\r\n    }\r\n\r\n    //*** ERC20 OVERRIDE ***//\r\n    function transfer(address _recipient, uint256 _amount)\r\n        public\r\n        override\r\n        onlyManager\r\n        returns (bool)\r\n    {\r\n        _transfer(msg.sender, _recipient, _amount);\r\n        return true;\r\n    }\r\n\r\n    function approve(address spender, uint256 amount)\r\n        public\r\n        override\r\n        onlyManager\r\n        returns (bool)\r\n    {\r\n        _approve(msg.sender, spender, amount);\r\n        return true;\r\n    }\r\n\r\n    //*** Helper ***//\r\n\r\n    function findIndexInArray(address _investor)\r\n        public\r\n        view\r\n        isWaitingList\r\n        returns (int256)\r\n    {\r\n        for (uint256 i = 0; i < waitingList.length; i++) {\r\n            if (waitingList[i] == _investor) {\r\n                return int256(i);\r\n            }\r\n        }\r\n        return -1;\r\n    }\r\n\r\n    function checkTimeRestriction(uint256 idx) public view isWaitingList {\r\n        uint256 timeEnd = startDate +\r\n            timeToBuyInHours *\r\n            60 *\r\n            60 *\r\n            waitingList.length; // end time of array calculated from startDate (one circle)\r\n\r\n        uint256 timeNow = ((block.timestamp - startDate) %\r\n            (timeEnd - startDate)) + startDate; // time now calculated with modulo\r\n\r\n        uint256 timeToBuyStart = startDate +\r\n            (uint256(idx)) *\r\n            timeToBuyInHours *\r\n            60 *\r\n            60; // time to buy: slot start for investor\r\n\r\n        uint256 timeToBuyEnd = startDate +\r\n            (uint256(idx) + 1) *\r\n            timeToBuyInHours *\r\n            60 *\r\n            60; // time to buy: slot end for investor\r\n\r\n        // check if investor bought in the last x hours\r\n        require(\r\n            !(whiteListedInvestors[msg.sender].timeLastBoughtTokens >\r\n                block.timestamp - timeToBuyInHours * 60 * 60),\r\n            \"Investor bought tokens already. Wait until your next turn\"\r\n        );\r\n\r\n        // if investor still needs to wait\r\n        require(\r\n            !(timeToBuyStart > timeNow),\r\n            \"Investors needs to wait. It's too early to buy.\"\r\n        );\r\n\r\n        // if investor is too late\r\n        require(\r\n            !(timeNow > timeToBuyEnd),\r\n            \"Investors needs to wait. It's too late to buy.\"\r\n        );\r\n    }\r\n\r\n    function getSummary()\r\n        public\r\n        view\r\n        returns (\r\n            address,\r\n            string memory,\r\n            string memory,\r\n            uint256,\r\n            uint256,\r\n            uint256,\r\n            uint256,\r\n            bool,\r\n            address[] memory,\r\n            Auction[] memory,\r\n            Selling[] memory\r\n        )\r\n    {\r\n        return (\r\n            manager,\r\n            title,\r\n            description,\r\n            tokenPrice,\r\n            tokensPerInvestor,\r\n            timeToBuyInHours,\r\n            startDate,\r\n            isDutchAuction,\r\n            waitingList, // incl. white-listed investors\r\n            auctions,\r\n            sellings\r\n        );\r\n    }\r\n}\r\n\r\n/***\r\nDisclosure: \r\nTo learn Solidity and the concepts behind it we attended the class from Fabian Schr \"Smart Contracts and Decentralized Blockchain Applications\" and a course on Udemy \"Ethereum and Solidity: The Complete Developer's Guide\" by Stephen Grider. \r\nConcepts like \"Factory\", \"getSummary\" and how to implement a front-end with Nextjs were demonstrated in the Udemy course. Concepts like block.timestamp was demonstrated in Fabian Schr's course. \r\nIdea and the code are original from the group work. We are not aware of any copies. We are not aware of any third party code, except for the credits below.\r\n\r\nCredits:\r\nBuying & Selling: https://dev.to/stermi/how-to-create-an-erc20-token-and-a-solidity-vendor-contract-to-sell-buy-your-own-token-4j1m\r\nBuying & Selling: https://ethereum.stackexchange.com/questions/68759/buytoken-function-with-erc20-interface\r\nWhitelist: https://dev.to/emanuelferreira/how-to-create-a-smart-contract-to-whitelist-users-57ki\r\nDutch Auction: https://www.quicknode.com/guides/solidity/how-to-create-a-dutch-auction-smart-contract\r\nFind Index in Array: https://ethereum.stackexchange.com/questions/121913/get-index-of-element-in-array\r\nDelete Element in Array: https://ethereum.stackexchange.com/questions/1527/how-to-delete-an-element-at-a-certain-index-in-an-array\r\nFractionability: https://ethereum.stackexchange.com/questions/101876/how-to-transfer-a-fraction-of-erc20-token\r\n****/\r\n",
  "sourcePath": "C:\\Users\\tunc-\\Desktop\\uni\\02_FS22\\blockchain-challenge\\cef-marketplace\\contracts\\ClosedEndFund.sol",
  "compiler": {
    "name": "solc",
    "version": "0.8.0+commit.c7dfd78e.Emscripten.clang"
  },
  "schemaVersion": "3.4.7",
  "updatedAt": "2022-05-03T23:22:35.572Z",
  "devdoc": {
    "kind": "dev",
    "methods": {
      "allowance(address,address)": {
        "details": "See {IERC20-allowance}."
      },
      "approve(address,uint256)": {
        "details": "See {IERC20-approve}. NOTE: If `amount` is the maximum `uint256`, the allowance is not updated on `transferFrom`. This is semantically equivalent to an infinite approval. Requirements: - `spender` cannot be the zero address."
      },
      "balanceOf(address)": {
        "details": "See {IERC20-balanceOf}."
      },
      "decimals()": {
        "details": "Returns the number of decimals used to get its user representation. For example, if `decimals` equals `2`, a balance of `505` tokens should be displayed to a user as `5.05` (`505 / 10 ** 2`). Tokens usually opt for a value of 18, imitating the relationship between Ether and Wei. This is the value {ERC20} uses, unless this function is overridden; NOTE: This information is only used for _display_ purposes: it in no way affects any of the arithmetic of the contract, including {IERC20-balanceOf} and {IERC20-transfer}."
      },
      "decreaseAllowance(address,uint256)": {
        "details": "Atomically decreases the allowance granted to `spender` by the caller. This is an alternative to {approve} that can be used as a mitigation for problems described in {IERC20-approve}. Emits an {Approval} event indicating the updated allowance. Requirements: - `spender` cannot be the zero address. - `spender` must have allowance for the caller of at least `subtractedValue`."
      },
      "increaseAllowance(address,uint256)": {
        "details": "Atomically increases the allowance granted to `spender` by the caller. This is an alternative to {approve} that can be used as a mitigation for problems described in {IERC20-approve}. Emits an {Approval} event indicating the updated allowance. Requirements: - `spender` cannot be the zero address."
      },
      "name()": {
        "details": "Returns the name of the token."
      },
      "symbol()": {
        "details": "Returns the symbol of the token, usually a shorter version of the name."
      },
      "totalSupply()": {
        "details": "See {IERC20-totalSupply}."
      },
      "transferFrom(address,address,uint256)": {
        "details": "See {IERC20-transferFrom}. Emits an {Approval} event indicating the updated allowance. This is not required by the EIP. See the note at the beginning of {ERC20}. NOTE: Does not update the allowance if the current allowance is the maximum `uint256`. Requirements: - `from` and `to` cannot be the zero address. - `from` must have a balance of at least `amount`. - the caller must have allowance for ``from``'s tokens of at least `amount`."
      }
    },
    "version": 1
  },
  "userdoc": {
    "kind": "user",
    "methods": {},
    "version": 1
  }
}